:100000000C9445020C946D020C946D020C946D02DC
:100010000C946D020C946D020C946D020C942D07DF
:100020000C946D020C946D020C946D020C942306DA
:100030000C946D020C946D020C946D020C946D0284
:100040000C9426140C946D020C9419050C94F30472
:100050000C946D020C946D020C946D020C946D0264
:100060000C94E3070C946D026420101971191F1A87
:100070001F1A341AE61D1F1ABE20BE20BE20BE2045
:10008000BE20611A7B1AB31ABE20C81AA81ABE2055
:10009000BE20F21AAA20B31C961DB91D3F1BBE201C
:1000A000BE20BE2073207B20BE20BE20BE20251B8C
:1000B000BE20BE20BE20BE20BE20BE20BE20BE2050
:1000C000BE20BE20BE20BE20BE20BE208F209A2093
:1000D000084AD73B3BCE016E84BCBFFDC12F3D6CAF
:1000E00074319ABD56833DDA3D00C77F11BED9E415
:1000F000BB4C3E916BAAAABE000000803F07634242
:1001000036B79BD8A71A39685618AEBAAB558C1DAE
:100110003CB7CC5763BD6DEDFD753EF6177231BF30
:10012000000000803F08000000BE922449123EAB50
:10013000AAAA2ABECDCCCC4C3E00000080BEABAA01
:10014000AAAA3E00000000BF000000803F0000009F
:100150000000084178D3BB4387D1133D190E3CC33F
:10016000BD4282AD2B3E68EC8276BED98FE1A93EBE
:100170004C80EFFFBE01C4FF7F3F00000000000085
:100180000E000F00100011001200130014001500E3
:100190002000000000000030007C82827C003100E2
:1001A00042FE0200003200468A926200330044920E
:1001B000926C0034001C64FE04003500F292928CB4
:1001C0000036007C92924C003700C08E90E00038E0
:1001D000006C92926C0039006492927C0061000481
:1001E0002A2A1E006200FE12120C0063000C12127A
:1001F000120064000C1212FE0065001C2A2A18006E
:100200006600103E50500067000815151E0068007B
:10021000FE101E00006900002E0000006A000201AE
:100220002E00006B00FE081412006C0000FE02009D
:10023000006D001E100E100E6E001E10100E006FCE
:10024000000C12120C0070001F12120C0071000C36
:1002500012121F0072001E081010007300122925D0
:1002600012007400103E12000075001C02021E00F5
:10027000761804020418007718061C061800780087
:10028000120C0C120079001805051E007A001216D7
:100290001A120041007E88887E004200FE92926C15
:1002A0000043007C828244004400FE82827C004540
:1002B00000FE929282004600FE9090800047007CF3
:1002C00082925C004800FE1010FE00490082FE820F
:1002D00000004A000C0202FC004B00FE1028C60081
:1002E0004C00FE020202004D00FE403040FE4E0077
:1002F000FE403008FE4F007C8282827C5000FE90DF
:1003000090600051007C828A847A5200FE98946248
:100310000053006492924C00540080FE808000558F
:1003200000FC0202FC005600F00C020CF05700FE2C
:10033000043804FE5800C63838C60059C0201E20B4
:10034000C0005A00869AB2C2002C00010E0C0000B8
:100350002E000006060000257254781E2A4E210049
:10036000007A0000003F00204A3000002D001010ED
:100370001010002B08083E0808002F00020C304027
:10038000002A2214081422003A000014000000225F
:1003900000C000C000002328FE28FE28002800001E
:1003A0007C820000290000827C00003B00022400C7
:1003B00000007E0040804080003B000224000000DE
:1003C0003D0028282828007C0000FE0000003E0098
:1003D00082442810003C00102844820040000000A5
:1003E0000000007C447C007C005C547454547C709D
:1003F000107C74545C7C545C40407C7C547C745411
:100400007C000400202020000000000000002500E7
:1004100028002B0004040404040404040202020261
:1004200002020303030303030102040810204080B7
:100430000102040810200102040810203F065B4F4F
:10044000666D7D077F6F777C395E7971BF86DBCF04
:10045000E6EDFD87FFEFF7FCB9DEF9F100400000A3
:100460000000240027002A000000000023002600CE
:10047000290000000008000201000003040700003A
:100480000000000000004F29312911241FBECFEFCA
:10049000D8E0DEBFCDBF11E0A0E0B1E0EEEFF5E6C1
:1004A00002C005900D92AE38B107D9F726E0AEE84C
:1004B000B1E001C01D92AD39B207E1F712E0C4E42A
:1004C000D2E004C02197FE010E94B330C334D107AB
:1004D000C9F70E94B5140C94F2320C940000CF922C
:1004E000DF92EF92FF920F931F93CF93DF936C01F4
:1004F0007A018B01C0E0D0E0CE15DF0581F0D80194
:100500006D918D01D601ED91FC910190F081E02D6E
:10051000C6010995892B11F02196EECF7E01C70106
:10052000DF91CF911F910F91FF90EF90DF90CF90CF
:100530000895FC01538D448D252F30E0842F90E0E9
:10054000821B930B541710F0CF96089501970895CE
:10055000FC01918D828D981761F0828DDF01A80FCB
:10056000B11D5D968C91928D9F5F9F73928F90E0ED
:1005700008958FEF9FEF0895FC01918D828D98175C
:1005800031F0828DE80FF11D858D90E008958FEF99
:100590009FEF0895FC01918D228D892F90E0805C62
:1005A0009F4F821B91098F73992708958FE692E0E0
:1005B0000E94CA0221E0892B09F420E0822F0895CD
:1005C000FC01848DDF01A80FB11DA35ABF4F2C91F0
:1005D000848D90E001968F739927848FA689B789BF
:1005E0002C93A089B1898C91837080648C93938DB6
:1005F000848D981306C00288F389E02D80818F7D59
:1006000080830895EF92FF920F931F93CF93DF9310
:10061000EC0181E0888F9B8D8C8D981305C0E88953
:10062000F989808185FD26C0F62E0B8D10E00F5FC5
:100630001F4F0F731127E02E8C8DE8120CC00FB6E0
:1006400007FCFACFE889F989808185FFF5CFCE01D3
:100650000E94E002F1CF8B8DFE01E80FF11DE35AFD
:10066000FF4FF0829FB7F8940B8FEA89FB89808156
:1006700080620AC09FB7F894EE89FF896083E88999
:10068000F98980818370806480839FBF81E090E0DE
:10069000DF91CF911F910F91FF90EF900895CF932D
:1006A000DF93EC01888D8823C9F0EA89FB8980817A
:1006B00085FD05C0A889B9898C9186FD0FC00FB64C
:1006C00007FCF5CF808185FFF2CFA889B9898C918D
:1006D00085FFEDCFCE010E94E002E7CFDF91CF9101
:1006E000089580E090E0892B29F00E94D6028111C4
:1006F0000C940000089585ED8093BC008091BC00AF
:1007000084FDFCCF10928806089540914B02262F5D
:1007100030E0240F311D21323105DCF420918806B0
:100720002430C9F4FC0180E090E0861758F4309141
:100730004B022191DC01A55DBD4FA30FB11D2C9390
:100740000196F3CF80914B02680F60934B0280E0DB
:10075000089581E0089582E0089508950895089528
:10076000E0911D0680911E06E81730F4F0E0EE5B84
:10077000F94F808190E008958FEF9FEF0895909159
:100780001D0680911E06981750F4E92FF0E0EE5BED
:10079000F94F208130E09F5F90931D0602C02FEF3C
:1007A0003FEFC901089580911E0690E020911D063B
:1007B000821B91090895CF92DF92EF92FF920F93DF
:1007C0001F93CF93DF937C01CB018A0120911F06F9
:1007D000222389F0EB016B01C40ED51ECC15DD057B
:1007E00069F06991D701ED91FC910190F081E02DC4
:1007F000C7010995F3CF642F0E948503C801DF91DB
:10080000CF911F910F91FF90EF90DF90CF900895BF
:10081000CF93DF931F92CDB7DEB7698320911F0678
:100820002223D1F020914106203240F021E030E037
:10083000FC013383228380E090E015C08091200684
:10084000E82FF0E0EF5DF94F998190838F5F8093FF
:1008500020068093410605C061E0CE0101960E940A
:10086000850381E090E00F90DF91CF910895089586
:1008700080E090E008950E94A0320F931F93CF93E1
:10088000DF93EC0188819981009729F02A813B81CF
:100890002617370788F48B016F5F7F4F0E94DA318C
:1008A000009761F0998388831B830A832C813D81A3
:1008B000232B11F4FC01108281E001C080E0DF9164
:1008C000CF911F910F910895EF92FF920F931F9375
:1008D000CF93DF9300D0CDB7DEB78C0169831A8246
:1008E000FC01E480F580FFEFEF1AFF0AB7010E94D8
:1008F0003D04882381F0F801208131818481958134
:10090000BE016F5F7F4F820F931F0E94BB32F801C1
:10091000F582E48281E00F900F90DF91CF911F91DB
:100920000F91FF90EF900895EF92FF920F931F9316
:10093000CF93DF93EC017B018A01BA010E943D0451
:100940002881398181110DC02115310519F0C901A6
:100950000E945131198218821D821C821B821A82C8
:1009600006C01D830C83B701C9010E94BB32CE01B2
:10097000DF91CF911F910F91FF90EF900895FC01AF
:10098000808191810C945131FB01DC0111961C9204
:100990001E9213961C921E92129715961C921E92EE
:1009A00014978617970749F0608171816115710569
:1009B00021F0448155810C9494040895FC01118226
:1009C000108213821282158214826115710551F012
:1009D000FB0101900020E9F73197AF01461B570B4F
:1009E0000C94940408951F920F920FB60F92112445
:1009F0002F933F934F935F936F937F938F939F9327
:100A0000AF93BF93EF93FF938FE692E00E94E002D3
:100A1000FF91EF91BF91AF919F918F917F916F91D6
:100A20005F914F913F912F910F900FBE0F901F90AC
:100A300018951F920F920FB60F9211242F938F9338
:100A40009F93EF93FF93E0917F02F091800280816A
:100A5000E0918502F091860282FD12C09081809122
:100A600088028F5F8F7320918902821751F0E09185
:100A70008802F0E0E159FD4F958F8093880201C014
:100A80008081FF91EF919F918F912F910F900FBED9
:100A90000F901F901895CF92DF92EF92FF92CF9315
:100AA000DF93EC01603282E07807D4F577FD06C071
:100AB000653B71052CF064EB70E002C060E070E013
:100AC0008A81998128E830E06901C91AD10897FD27
:100AD000D394CC0CDD1CCC0CDD1C0D2C000CEE08D2
:100AE000FF082EE239E094E089022019310911242F
:100AF000C901330FAA0BBB0B9C01AD012C193D0999
:100B00004E095F09DB010E94632C24EB30E040E0DA
:100B100050E00E94392CC20ED31EE41EF51EB60111
:100B200038813C3068F5298188E890E0821B910982
:100B300027FD9395880F991F880F991F68177907CC
:100B40006CF08A814EE259E094E089024019510923
:100B50001124CB01461757070CF4CA010297880FDE
:100B6000991F4FB7F894232F30E0F901EE0FFF1FC4
:100B70002E0F3F1FF901EB57FC4F928381834FBF2C
:100B8000DF91CF91FF90EF90DF90CF9008951F936A
:100B9000CF93DF93EC01162F88818C3008F04EC084
:100BA00061E0812F0E9409138881E82FF0E09F0106
:100BB000220F331FE20FF31FEB57FC4F1F7790817B
:100BC0009078192B108319821A826CE00E947F3072
:100BD0009CE0899FB001112440E050E09B01240F6C
:100BE000351FF901EE0FFF1F2E0F3F1FF901EB57C5
:100BF000FC4F908197FD16C04F5F5F4F4C30510501
:100C000069F781110FC01092800082E0809381000B
:100C10001092850010928400B19A80916F008260DA
:100C200080936F00E881F0E0CF01880F991FE80FF3
:100C3000F91FEB57FC4F8081806880838881DF91AA
:100C4000CF911F9108951F920F920FB60F9211240A
:100C50002F933F934F935F936F937F938F939F93C4
:100C6000AF93BF93EF93FF9380916E0287FF05C010
:100C700010928500109284001BC020916E02022EFB
:100C8000000C330B8091A90390E02817390784F4F6
:100C900080916E02082E000C990BFC01EE0FFF1FD5
:100CA0008E0F9F1FFC01EB57FC4F808187FD15C005
:100CB00080916E028F5F80936E0220916E02022EF1
:100CC000000C330B8091A90390E028173907C4F476
:100CD00080916E028C3064F113C080916E02082EF8
:100CE000000C990BFC01EE0FFF1F8E0F9F1FFC01E4
:100CF000EB57FC4F808160E08F770E94DA12D8CFEB
:100D00008091840090918500049680349C4918F469
:100D100080E49CE905C08091840090918500049650
:100D200090938900809388008FEF80936E023BC080
:100D3000209184003091850080916E02082E000C75
:100D4000990BFC01EE0FFF1F8E0F9F1FFC01EB574D
:100D5000FC4F81819281820F931F90938900809331
:100D6000880080916E02082E000C990BFC01EE0F9A
:100D7000FF1F8E0F9F1FFC01EB57FC4F808187FFE9
:100D800012C080916E02082E000C990BFC01EE0F30
:100D9000FF1F8E0F9F1FFC01EB57FC4F808161E00E
:100DA0008F770E94DA12FF91EF91BF91AF919F91DF
:100DB0008F917F916F915F914F913F912F910F9004
:100DC0000FBE0F901F901895DC01E62FF0E0EE0F9C
:100DD000FF1FE65CFE4F80818C93818111968C937E
:100DE000119712966C930895CF93DF93EC0160E016
:100DF00089810E9409138981DF91CF910C94A413FA
:100E0000CF93DF93EC0160E088810E940913888111
:100E1000DF91CF910C94A4131F93CF93DF93EC0138
:100E2000162F61E089810E940913612F8981DF916A
:100E3000CF911F910C94DA12CF93DF93EC0188814C
:100E40000E94091388810E94B11221E0892B09F4C4
:100E500020E0822FDF91CF9108951F920F920FB65D
:100E60000F9211240F931F932F933F934F935F93F0
:100E70006F937F938F939F93AF93BF93CF93EF9392
:100E8000FF9382E00E94B112C82F80911E039091BF
:100E90001F03019690931F0380931E038091840388
:100EA000843618F085E0809319038091190383300C
:100EB00079F018F4823039F072C0843011F1853045
:100EC00009F44AC06CC0C1116AC01092840329C0E1
:100ED000C13009F064C0E091840381E08E0F8093FB
:100EE0008403F0E080911E0390911F03E85EFC4FA5
:100EF000808710921F0310921E0384E080931903D1
:100F00004EC0C11114C0E091840381E08E0F809324
:100F10008403F0E080911E0390911F03E85EFC4F74
:100F2000808710921F0310921E0383E0E7CF809109
:100F30001E0390911F038536910588F185E080930B
:100F400019030E941A1460931A0370931B03809371
:100F50001C0390931D0323C00E941A1400911A03CE
:100F600010911B0320911C0330911D03DC01CB0168
:100F7000801B910BA20BB30B893C9105A105B10518
:100F800040F01092840310921F0310921E0382E01F
:100F9000B5CFC11104C010921F0310921E03FF9120
:100FA000EF91CF91BF91AF919F918F917F916F9171
:100FB0005F914F913F912F911F910F910F900FBE15
:100FC0000F901F9018951F920F920FB60F92112439
:100FD0002F933F934F935F936F937F938F939F9341
:100FE000AF93BF93EF93FF938091B900887F8036D2
:100FF00009F49CC068F5883209F45BC090F4803134
:1010000009F454C038F4882309F4F6C0883009F490
:101010004DC0F6C0883109F44CC0803209F45DC07F
:10102000EFC0803409F468C048F4803309F455C037
:10103000883309F0E5C080938606D8C0803509F46E
:101040004FC0883509F45DC0883409F0D9C0D6C0D6
:10105000883909F4C7C0A8F4883709F467C038F4A0
:10106000883609F463C0803709F460C0C9C0883885
:1010700009F4B8C0803909F45FC0803809F0C0C0F5
:101080005BC0803B09F486C038F4803A09F466C03E
:10109000883A09F47FC0B4C0803C09F4A7C0883CFA
:1010A00009F4A4C0883B09F48AC0AAC080918306D1
:1010B00010C09091850680918406981770F5E09194
:1010C000850681E08E0F80938506F0E0EE59F94F9A
:1010D00080818093BB0085EC86C0809386068EC09D
:1010E000E091850681E08E0F809385068091BB009C
:1010F000F0E0EE59F94F8083909185068091840647
:101100006EC0E091850681E08E0F80938506809108
:10111000BB00F0E0EE59F94F808380918706811182
:101120006DC081E08093820684EA61C083E0809391
:10113000880610926D02CFCF80916D02803208F048
:1011400051C0E0916D0281E08E0F80936D0280911D
:10115000BB00F0E0E35BFD4F8083BDCF85EC809367
:10116000BC001092880680916D02803230F4E091CC
:101170006D02F0E0E35BFD4F108260916D0270E064
:10118000E0911906F0911A068DE492E0099510920B
:101190006D0236C084E08093880610924C02109253
:1011A0004B02E0911B06F0911C06099580914B02C1
:1011B000811105C081E080934B0210922B02E091D7
:1011C0004C0281E08E0F80934C02F0E0E55DFD4F14
:1011D00080818093BB0090914C0280914B029817C4
:1011E00008F479CF85E88093BC000AC085EC809331
:1011F000BC001092880604C0109286060E947B03F1
:10120000FF91EF91BF91AF919F918F917F916F91DE
:101210005F914F913F912F910F900FBE0F901F90B4
:101220001895E9E2F2E0DC01AE56BE4F8C91808366
:1012300011968C9181838091290290912A020895C0
:10124000682F8FE692E00C940203CF92DF92EF9228
:10125000FF92CF93DF936B017C0183E00E94200912
:10126000C701B6010E94242E862F262F372F3093D8
:101270002A0220932902C9E2D2E00E942009898132
:101280000E9420098A810E9420098B81DF91CF91E1
:10129000FF90EF90DF90CF900C942009EF92FF9297
:1012A0000F931F93CF93DF93162FE72EF82E092F5E
:1012B00082E00E942009CEE8D1E0812F9E2DAF2D43
:1012C000B02F88839983AA83BB830E9420098981D8
:1012D0000E9420098A810E9420098B81DF91CF9191
:1012E0001F910F91FF90EF900C942009CF93C82F7E
:1012F00081E00E9420098C2FCF910C9420098FEF60
:101300000E94200985E50E9420090C9499098FEF1D
:101310000E94200985E50C942009CF93C091FD041B
:1013200061E08C2F0E94091360E08C2FCF910C9408
:10133000DA1242E050E06AE871E08FE692E00C9445
:101340006F023F924F925F926F927F928F929F9225
:10135000AF92BF92CF92DF92EF92FF920F931F93C3
:10136000CF93DF934A015B019C0140E050E060E4D1
:1013700072E48FE090E00E94392C69017A0130908C
:10138000FD0461E0832D0E940913A8EEB3E0A501DE
:1013900094010E94582C2B013C01E601D7FC2196B8
:1013A000D595C7958E01000F111F000F111F055015
:1013B00011090D2C000CEE08FF08812C912C540112
:1013C00084149504A604B704D0F461E0832D0E9430
:1013D000DA12C230D10518F0C8010197F1F760E0C8
:1013E000832D0E94DA12C230D10518F0C80101978E
:1013F000F1F7A8958C0C9D1CAE1CBF1CE1CFDF91B2
:10140000CF911F910F91FF90EF90DF90CF90BF9001
:10141000AF909F908F907F906F905F904F903F9094
:101420000895CF93DF93EC0140E050E06CE871E069
:101430000E949404CE01DF91CF9108954F925F9264
:101440006F927F928F929F92AF92BF92CF92DF92D4
:10145000EF92FF920F931F93CF93DF938C016AE07B
:101460000E946404C0E0D0E044244394F9E05F2E7D
:10147000A2ED6A2EB6E47B2E8BE9E82E8CE8F82EDE
:101480009BE4C92E96E4D92E2BEB822E28E0922ED7
:101490003BEFA32E38E1B32EF80184819581C81764
:1014A000D90708F06DC080819181009729F0FC0177
:1014B000EC0FFD1F808101C080E0482F409550E077
:1014C00060E070E0762F652F542F4427480F511DA0
:1014D000611D711DBA01552744274F6F109270008E
:1014E0004092B0005092B1006092B3007092B4008C
:1014F0008091B00080628093B000C7010197F1F73E
:101500008091B0008F7D8093B000C6010197F1F704
:1015100080E290E02091B00020622093B000F401BE
:1015200040FF09C03197F1F72091B0002F7D209343
:10153000B000F50108C03197F1F72091B0002F7D80
:101540002093B000F4013197F1F7769567955795A0
:1015500047950197F9F68091B00080628093B000C2
:10156000C4010197F1F78091B0008F7D8093B000A6
:1015700064E170E080E090E00E94E01321968CCF5F
:10158000F89482E08093B0008093B10094E6909349
:10159000B3001092B2008093700078948093190386
:1015A000109284038091180360E0DF91CF911F9126
:1015B0000F91FF90EF90DF90CF90BF90AF909F90F2
:1015C0008F907F906F905F904F900C940913EF92E3
:1015D000FF920F931F93CF93DF938C0161E0809173
:1015E00080040E94DA1260E0809181040E94DA1285
:1015F000C8E0D0EC60E0809180040E94DA126D2F88
:101600006170809181040E94DA1261E0809180040F
:101610000E94DA12D695C15069F7E801780180E19D
:10162000E80EF11C099118E060E0809180040E94AE
:10163000DA12602F6078809181040E94DA1261E0F2
:10164000809180040E94DA12000F115069F7EC16A5
:10165000FD0641F760E0809180040E94DA1260E0AC
:10166000809181040E94DA1261E0809180040E94DE
:10167000DA1261E080918104DF91CF911F910F9187
:10168000FF90EF900C94DA12CF93DF93D82F61E0A4
:10169000809180040E94DA1260E0809181040E94AF
:1016A000DA12C8E060E0809180040E94DA126D2FA7
:1016B0006170809181040E94DA1261E0809180045F
:1016C0000E94DA12D695C15069F760E080918004DB
:1016D0000E94DA1260E0809181040E94DA1261E0D7
:1016E000809180040E94DA1261E080918104DF9190
:1016F000CF910C94DA12CF93DF93C1EBD4E060E08A
:1017000088850E94DA1260E089850E94DA1261E021
:1017100088850E94DA1261E08985DF91CF910C946F
:10172000DA12CF93DF93D82FC8E060E08091B9043C
:101730000E94DA12D0FF02C061E001C060E0809137
:10174000BA040E94DA12D69561E08091B9040E9431
:10175000DA12C15051F760E08091B9040E94DA12A8
:1017600061E08091BA040E94DA1261E08091B904CC
:101770000E94DA1260E08091BA040E940913C8EC5A
:101780008091BA040E94B112892B69F0C150C1F74F
:1017900061E08091BA040E94091360E08091BA046C
:1017A0000E94DA12ECCF61E08091BA04DF91CF9110
:1017B0000C940913909188069111FCCF91E09093BD
:1017C0008806909387062FEF209386061092850651
:1017D000260F209384069093830690918306880FAA
:1017E000892B8093830680918206813061F4109268
:1017F0008206809183068093BB008091BC0083FDAC
:10180000F8CF85EC01C085EE8093BC0080918806FE
:101810008130E1F380918506861710F4609185068A
:10182000A2E6B6E0E2E4F6E080E0861721F09D91C2
:1018300091938F5FFACF0895282F3091410631326E
:1018400008F04AC0809188068111FCCF90918906EA
:1018500042E040938806209387062FEF2093860668
:101860001092850630938406E1E2F6E0A2E6B6E047
:1018700020E0321721F041914D932F5FFACF109263
:10188000830620918306990F922B90938306909163
:101890008206913061F410928206909183069093B3
:1018A000BB009091BC0093FDF8CF95EC01C095EE84
:1018B0009093BC00909188069230E1F39091860657
:1018C0009F3F79F080918606803241F080918606B4
:1018D000803331F084E005C081E003C082E001C0C4
:1018E00083E0109220061092410610921F06089580
:1018F000CF93DF93C1EBD4E061E088850E94DA12D8
:1019000061E089850E94DA1260E089850E94DA121E
:1019100060E08885DF91CF910C94DA12EF92FF920C
:101920000F931F93CF93DF9300D000D0CDB7DEB7D6
:101930008E010F5F1F4F7E0125E0E20EF11CF801C2
:10194000DC012D91CD012193EE15FF05C9F7D801DA
:1019500080E29C91923208F08C93EC91F0E0E45C90
:10196000FB4FE491ED93AE15BF0599F70E94780CFB
:1019700080E40E94910B0E947B0B0E94780C809166
:10198000B6040E94910BF80181918F010E94910B86
:101990000E151F05C1F70E947B0B0E94780C8091E9
:1019A000B7040E94910B0F900F900F900F90DF9152
:1019B000CF911F910F91FF90EF900C947B0B0F93A1
:1019C0001F93CF93DF938091BF049091C004EC01EB
:1019D000CC0FDD1FC80FD91F0091C1041091C204A4
:1019E000AE01B8018091C3049091C4040E94A53255
:1019F000892B09F43BC0A091C504B091C604209185
:101A0000C9043FB7F8948C91922F90959823822B1C
:101A1000F801CE0FDF1FEC17FD0781F0219148E0A0
:101A20008C9300C027FF9C93220F00C000C000C011
:101A300008F49C9300C04A9599F7EDCF3FBF4091C1
:101A4000BF045091C004CA01880F991F480F591F45
:101A50006091C1047091C2048091C3049091C40448
:101A60000E94B2328BEC97E00197F1F7DF91CF91B2
:101A70001F910F91089590E0E0E0F0E02091BF0405
:101A80003091C004E217F30708F5DF01BB27A21766
:101A9000B307C8F4292F30E0A091C104B091C2046B
:101AA000A20FB31F6C93A091C104B091C204A20F06
:101AB000B31F11968C93A091C104B091C204A20FE0
:101AC000B31F12964C9331969D5FD8CF81E0089555
:101AD000CF93DF938F3F910519F014F08FEF90E0D3
:101AE000EC01C1308FEFD80714F4C1E0DFEF809133
:101AF000E3049091E404C817D90721F1D093E404DA
:101B0000C093E304D7FD0BC061E08DED94E00E942B
:101B10000C078FE090E00197F1F7BE010DC060E087
:101B20008DED94E00E940C078FE090E00197F1F7B3
:101B3000662777276C1B7D0B8091DD04DF91CF91A9
:101B40000C944513DF91CF910895EF92FF920F937C
:101B50001F93CF93DF93F62ED72FC42F909153046A
:101B600021E020931F069093890610922006109280
:101B70004106682F8CE093E00E940804813001F553
:101B800080E00E941C0C81112FC06C2FC13208F024
:101B900060E2809153040E94DA0B10921D0680933C
:101BA0001E060F2D1D2FE12CF12CD0E090911E066A
:101BB00080911D06981731F0EC16FD0654F002C016
:101BC0008FEF12C081E0CE15DF0509F480E081952A
:101BD0000BC08FEFE81AF80A8CE093E00E94BF0375
:101BE000F80181938F01E2CFDF91CF911F910F9187
:101BF000FF90EF900895CF93DF93EB019091530402
:101C000021E020931F0690938906109220061092DF
:101C10004106682F8CE093E00E940804813061F453
:101C200041E050E0BE018CE093E00E94DB0381E0E4
:101C3000DF91CF910C941C0C8FEFDF91CF91089521
:101C400010921D0610921E06109220061092410658
:101C50001092880681E0809387061092820661E0E8
:101C600082E10E94DA1261E083E10E94DA12E9EB7C
:101C7000F0E080818E7F808380818D7F808388E407
:101C80008093B80085E48093BC008DEA93E0909344
:101C90001C0680931B068EEA93E090931A068093AD
:101CA00019060895F89482E08093B0008093B10003
:101CB00094E69093B3001092B200809370007894F1
:101CC00010928403809319030895EF92FF920F936B
:101CD0001F93CF93DF938C01FC01C481EC2EF58020
:101CE00084E00E9420098C2F0E942009C0E0D0E0EF
:101CF000CE15DF05A4F4F80184819581C817D907B2
:101D000048F480819181009729F0FC01EC0FFD1FC0
:101D1000808101C080E00E9420092196E9CFDF91F7
:101D2000CF911F910F91FF90EF900895CF93DF9384
:101D3000EC0160E089810E94091389810E94B1123F
:101D400021E0892B09F420E0822FDF91CF910895C3
:101D5000CF93DF93EB019091F10321E020931F06D5
:101D6000909389061092200610924106682F8CE00D
:101D700093E00E940804813061F441E050E0BE012C
:101D80008CE093E00E94DB0381E0DF91CF910C9423
:101D90001C0C8FEFDF91CF910895EF92FF920F937C
:101DA0001F93CF93DF93F62ED72FC42F9091F1037B
:101DB00021E020931F06909389061092200610922E
:101DC0004106682F8CE093E00E940804813001F501
:101DD00080E00E941C0C81112FC06C2FC13208F0D2
:101DE00060E28091F1030E94DA0B10921D0680934D
:101DF0001E060F2D1D2FE12CF12CD0E090911E0618
:101E000080911D06981731F0EC16FD0654F002C0C3
:101E10008FEF12C081E0CE15DF0509F480E08195D7
:101E20000BC08FEFE81AF80A8CE093E00E94BF0322
:101E3000F80181938F01E2CFDF91CF911F910F9134
:101E4000FF90EF9008952F923F924F925F926F9282
:101E50007F928F929F92AF92BF92CF92DF92EF923A
:101E6000FF920F931F93CF93DF93CDB7DEB7A69763
:101E70000FB6F894DEBF0FBECDBF62E086EE93E0F2
:101E80000E941C07811131C26AE070E080E090E09E
:101E90000E94E01362E086EE93E00E941C0781112D
:101EA00024C243E06BEE73E08AE00E94CD0E811104
:101EB0001CC28091EB03883409F017C28091EC03B7
:101EC000843309F012C28091ED03833309F00DC20F
:101ED0000E941A146B017C01712C11E062E086EE05
:101EE00093E00E941C07811119C00E941A14DC01A2
:101EF000CB018C199D09AE09BF09893C9105A1054B
:101F0000B10560F3A8950E941A146B017C0171263B
:101F1000672D86EE93E00E940C07E0CF64E670E048
:101F200080E090E00E94E0130E941A144B015C01D3
:101F30002FEF3FE73C872B8740E050E85E874D87D7
:101F40008FEF9FE798878F83A0E0B0E8BA87A987D3
:101F500022242A949FE7392E00E010E86624639437
:101F60000E941A14DC01CB018C199D09AE09BF092E
:101F7000893C9105A105B10558F0A8950E941A1455
:101F80006B017C017624672D86EE93E00E940C079E
:101F90000E941A14DC01CB0188199909AA09BB090E
:101FA0000B97A105B105C0F1A895AE014F5F5F4F3A
:101FB000BE016D5F7F4FCE0105960E94B7118D81E6
:101FC0009E81821593052CF0081719071CF48C01CB
:101FD00001C01C018B819C81EF81F8858E179F07C2
:101FE00044F029853A85281739072CF49A87898780
:101FF00002C098878F8389819A814B855C8584177D
:10200000950744F0AD85BE85A817B9072CF49E87C7
:102010008D8702C09C878B8762E086EE93E00E94EA
:102020001C0781119DCF60E086EE93E00E940C07B3
:10203000B801012E000C880B990B0E94062B4B0156
:102040005C01B101032C000C880B990B0E94062B3C
:102050006F87788B898B9A8B9B01AC01C501B4018A
:102060000E94D42C905820E030E040E05FE30E94D2
:10207000652B6B8B7C8B8D8B9E8B6093F3037093A6
:10208000F4038093F5039093F603E985FA85BF0185
:10209000FF0F880B990B0E94062B6B017C012F818F
:1020A0003885B901330F880B990B0E94062B6F8B73
:1020B000788F898F9A8F9B01AC01C701B6010E946E
:1020C000D42C905820E030E040E05FE30E94652B84
:1020D0006B8F7C8F8D8F9E8F6093F7037093F803C7
:1020E0008093F9039093FA034D855E85BA01550FED
:1020F000880B990B0E94062B2B013C01AB85BC85FC
:10210000BD01BB0F880B990B0E94062B6F8F78A324
:1021100089A39AA39B01AC01C301B2010E94D42CF4
:10212000905820E030E040E05FE30E94652B6BA315
:102130007CA38DA39EA36093FB037093FC03809309
:10214000FD039093FE0380E090E0A0E8BFE380935E
:10215000FF0390930004A0930104B09302042F8521
:10216000388949895A89C501B4010E94D32C4B0191
:102170005C012F89388D498D5A8DC701B6010E94A7
:10218000D32CA50194010E94B22D6B017C016093B8
:1021900003047093040480930504909306042F8D28
:1021A00038A149A15AA1C301B2010E94D32CA501B3
:1021B00094010E94B22D4B015C016093070470935F
:1021C00008048093090490930A040219130917FF65
:1021D00003C011950195110989859A85EF81F885CC
:1021E0008E1B9F0B97FF03C09195819591092D85BB
:1021F0003E854B855C85241B350B37FF03C031952D
:10220000219531098017910744F02017310714F008
:1022100081E009C0081719072CF02817390714F0B6
:1022200082E001C083E080930B042B8D3C8D4D8DAB
:102230005E8D6B897C898D899E890E94D42C2BA10F
:102240003CA14DA15EA10E94D42C20E030E040E8EA
:102250005FE30E94D42CA70196010E94D42CA50113
:1022600094010E94D42C6B017C0160910B0470E0FE
:1022700080E090E00E94062B9B01AC01C701B601F3
:102280000E94D42C20E030E04AE253E40E94D42C97
:102290000E942B2E60930C0483EFE82E83E0F82E2F
:1022A00000E010E0D7016D917D01C8010E942B2C48
:1022B0000F5F1F4F0A311105A9F781E08093EA03F0
:1022C00061E086EE93E00E940C0762E086EE93E008
:1022D0000E941C07811102C0A895F7CFA89564E65B
:1022E00070E080E090E00E94E013A6960FB6F894AC
:1022F000DEBF0FBECDBFDF91CF911F910F91FF9039
:10230000EF90DF90CF90BF90AF909F908F907F9095
:102310006F905F904F903F902F900895833081F0A1
:1023200028F4813099F08230A1F008958730A9F027
:102330008830B9F08430D1F4809180008F7D03C063
:10234000809180008F7780938000089584B58F7787
:1023500002C084B58F7D84BD08958091B0008F77D1
:1023600003C08091B0008F7D8093B0000895CF921C
:10237000DF92EF92FF920F931F93CF93DF931F9201
:10238000CDB7DEB76C017B018A010E94230F46E0C6
:102390006BEE73E083E00E94CD0E882321F0082EBF
:1023A000000C990B2BC08091F203813039F48983A2
:1023B000BE016F5F7F4F82E00E94A80E8091EB0309
:1023C0009091EC03982789279827F60191838083C1
:1023D0008091EF039091F003982789279827F701C0
:1023E000918380838091ED039091EE039827892754
:1023F0009827F8019183808380E090E00F90DF912F
:10240000CF911F910F91FF90EF90DF90CF900895A3
:10241000CF92DF92EF92FF920F931F93CF93DF93B0
:1024200028E030E041E06FEF70E09FE0C92ED12C52
:10243000C3E2D0E007ED10E09091CE04E091CF042C
:10244000F091D004592F5095F82EF42281F0F89491
:10245000F2805F2152835181592B5183DE01119704
:10246000F1F75281952B92837894F8010FC0F8947C
:10247000F2805F2152835181592B5183DB011197E7
:10248000F1F75281952B92837894F6013197F1F709
:10249000440F2150310981F6F894E091CF04F09176
:1024A000D00491818091CE04809589238183E0912D
:1024B000CF04F091D00492818091CE04892B828345
:1024C000E091CF04F091D00492818091CE04809568
:1024D000892382837894DF91CF911F910F91FF9090
:1024E000EF90DF90CF9008959091CE04E091CF04CB
:1024F000F091D004F8948181292F20958223818343
:102500008281892B828378948DE743E050E081506B
:1025100039F1DA011197F1F730813923C1F3F894D9
:102520008281822382838181892B81837894ABE7A6
:10253000B7E01197F1F7F8948181282321838281F4
:10254000892B8283A3E1B1E01197F1F78081982371
:1025500081E009F080E07894E3E6F6E03197F1F766
:102560000895CF93DF93282F30E0F901EE58FB4F09
:102570008491F901E85DFB4FD491F901EC5EFB4FCA
:10258000C491CC2391F081110E948E11EC2FF0E0C8
:10259000EE0FFF1FE859FB4FA591B491EC91ED238D
:1025A00081E090E021F480E002C080E090E0DF91E3
:1025B000CF9108951F93CF93DF93282F30E0F90137
:1025C000EE58FB4F8491F901E85DFB4FD491F9017E
:1025D000EC5EFB4FC491CC23C1F0162F81110E94F9
:1025E0008E11EC2FF0E0EE0FFF1FE65FFB4FA59181
:1025F000B4919FB7F894111104C08C91D095D82351
:1026000002C0EC91DE2BDC939FBFDF91CF911F9135
:102610000895CF93DF9390E0FC01E85DFB4F249198
:10262000FC01EC5EFB4F8491882361F190E0880F00
:10263000991FFC01E25AFB4FC591D491FC01E65F62
:10264000FB4FA591B491611109C09FB7F89488819F
:10265000209582238883EC912E230BC0623061F495
:102660009FB7F8948881322F309583238883EC912B
:102670002E2B2C939FBF06C08FB7F894E8812E2B8A
:1026800028838FBFDF91CF9108951F93CF93DF935E
:10269000182FEB0161E00E940913209711F460E00C
:1026A00004C0CF3FD10539F461E0812FDF91CF9194
:1026B0001F910C94DA12E12FF0E0EE58FB4FE491F9
:1026C000E330F9F048F4E130B9F0E230A1F584B537
:1026D000806284BDC8BD34C0E730E9F0E83019F14C
:1026E000E43049F580918000806280938000D0932F
:1026F0008B00C0938A0024C084B5806884BDC7BDA8
:102700001FC080918000806880938000D0938900F2
:10271000C093880015C08091B00080688093B0009D
:10272000C093B3000DC08091B00080628093B00070
:10273000C093B40005C0C038D1050CF0B5CFAFCF01
:10274000DF91CF911F9108958E3008F08E508770E1
:10275000806480937C0080917A00806480937A000A
:1027600080917A0086FDFCCF8091780020917900DD
:1027700090E0922B08953FB7F89480918F06909146
:102780009006A0919106B091920626B5A89B05C02F
:102790002F3F19F00196A11DB11D3FBFBA2FA92FE0
:1027A000982F8827820F911DA11DB11DBC01CD015D
:1027B00042E0660F771F881F991F4A95D1F7089549
:1027C0008F929F92AF92BF92CF92DF92EF92FF9241
:1027D0006B017C010E94BB134B015C01C114D1044D
:1027E000E104F104F1F00E94BB13DC01CB01881974
:1027F0009909AA09BB09883E9340A105B10570F368
:1028000021E0C21AD108E108F10888EE880E83E0C1
:10281000981EA11CB11CC114D104E104F10419F7E4
:10282000DDCFFF90EF90DF90CF90BF90AF909F9063
:102830008F9008952FB7F89460918B0670918C0655
:1028400080918D0690918E062FBF08951F920F9252
:102850000FB60F9211242F933F938F939F93AF93B3
:10286000BF9380918B0690918C06A0918D06B091BC
:102870008E0630918A0623E0230F2D3720F401962F
:10288000A11DB11D05C026E8230F0296A11DB11D93
:1028900020938A0680938B0690938C06A0938D06D6
:1028A000B0938E0680918F0690919006A09191062C
:1028B000B09192060196A11DB11D80938F06909351
:1028C0009006A0939106B0939206BF91AF919F910D
:1028D0008F913F912F910F900FBE0F901F901895E1
:1028E000CF92DF92EF92FF920F931F93E82FF92F71
:1028F00005C0015011092109310961F19081962328
:102900009417B9F305C0015011092109310911F1DA
:10291000908196239413F7CFC12CD12CE12CF12C6C
:102920000AC08FEFC81AD80AE80AF80A0C151D0564
:102930002E053F0579F080818623841791F36C2D55
:102940007D2D8E2D9F2D1F910F91FF90EF90DF9089
:10295000CF90089560E070E080E090E01F910F91CB
:10296000FF90EF90DF90CF900895CF93DF93CDB796
:10297000DEB7C454D1090FB6F894DEBF0FBECDBF89
:10298000789484B5826084BD84B5816084BD85B54A
:10299000826085BD85B5816085BD80916E00816056
:1029A00080936E00109281008091810082608093FC
:1029B00081008091810081608093810080918000FE
:1029C0008160809380008091B10084608093B10029
:1029D0008091B00081608093B00080917A00846023
:1029E00080937A0080917A00826080937A0080914F
:1029F0007A00816080937A0080917A008068809369
:102A00007A001092C10061E08DE00E94091361E03C
:102A10008DE00E94DA126CE271E080E090E00E94AA
:102A2000E01360E08DE00E94DA12E0917F02F09105
:102A3000800282E08083E0917B02F0917C02108230
:102A4000E0917D02F0917E0280E180831092870206
:102A5000E0918302F091840286E08083E09181021C
:102A6000F0918202808180618083E0918102F09107
:102A70008202808188608083E0918102F0918202ED
:102A8000808180688083E0918102F0918202808160
:102A90008F7D808364EF71E080E090E00E94E0131E
:102AA00042E350E060E070E084EF91E00E94A10911
:102AB00062E370E080E090E00E94E0130E948D09E4
:102AC0000E94520E40E060E080E00E943B0D20E05A
:102AD00040E050E0A2E031E08091BF049091C0045A
:102AE00048175907E0F4822F90E0E091C304F09179
:102AF000C404E80FF91FA083E091C304F091C4045B
:102B0000E80FF91F11826091C3047091C404FB01A6
:102B1000E80FF91F32834F5F5F4F2D5FDDCFE5E395
:102B2000F4E0E491E093C904E1E2F4E0E491F0E040
:102B3000EE0FFF1FE65FFB4F859194919093C604C3
:102B40008093C50461E08DE00E9409131092BD04DA
:102B500082E08093BE0440E060E080E00E943B0D94
:102B60000E94DF0C80E090E0A3E8B2E480931704B9
:102B700090931804A0931904B0931A0410921B04A4
:102B800010921C0410921D0410921E0410921F0437
:102B90001092200410922104109222041092230417
:102BA00010922404109225041092260410922704F7
:102BB000109228041092290410922A0410922B04D7
:102BC00010922C0410922D0410922E0410922F04B7
:102BD0001092300410923104109232041092340496
:102BE0001092330410923604109235041092380477
:102BF000109237041092390410923A0410923B0458
:102C000010923C0410923D0410923E0410923F0436
:102C10001092400410924104109242041092430416
:102C2000109244040E94200E68EC70E080E090E076
:102C30000E94E0131EA2BE016A5D7F4F8BE60E94D8
:102C4000FB0D64E670E080E090E00E94E01381E01C
:102C50008FA3BE01695D7F4F8AE10E94FB0D88E072
:102C600088A7BE01685D7F4F8BE10E94FB0D64E683
:102C700070E080E090E00E94E01304EF11E019A6FC
:102C80001AA61BA61CA6812C912C5401412C512C58
:102C9000320146E065E474E083E40E94A50D809172
:102CA000450490914604982789279827092E000CFF
:102CB000AA0BBB0B480E591E6A1E7B1E809147044F
:102CC00090914804982789279827092E000CAA0B71
:102CD000BB0B880E991EAA1EBB1E809149049091C1
:102CE0004A04982789279827092E000CAA0BBB0BAA
:102CF00029A53AA54BA55CA5280F391F4A1F5B1FC4
:102D000029A73AA74BA75CA70150110909F0C1CF29
:102D100004EFC02EDD24D394E12CF12CC301B201C9
:102D2000A70196010E94392CCA01B9010E94062B05
:102D30006093390470933A0480933B0490933C046D
:102D4000C501B401A70196010E94392CCA01B9013D
:102D50000E94062B60933D0470933E0480933F04D1
:102D60009093400469A57AA58BA59CA5A70196011F
:102D70000E94392CCA01B9010E94062B60934104BC
:102D800070934204809343049093440449E050E0DC
:102D90006CE571E08FE692E00E946F024091B4030F
:102DA0005091B5036091B0037091B1038FE692E04A
:102DB0000E946F020E9499098DE80E94440B81E0F5
:102DC00080938204409106015091070160910801AF
:102DD0007091090121964CAF5DAF6EAF7FAF219727
:102DE00060910A0170910B0180910C0190910D018D
:102DF00025966CAF7DAF8EAF9FAF259783E2282ECF
:102E0000312CEEE8F1E0149160E0812F0E9409136B
:102E1000812F0E94A41311E00B970CF010E0809119
:102E2000D001181761F01093D0010E94870980E843
:102E30000E942009812F0E9476090E949909009121
:102E4000CA031091CB030E941A14C090BA03D09009
:102E5000BB03E090BC03F090BD039B01AC012C19B7
:102E60003D094E095F0969017A0139E0C316D104B1
:102E7000E104F10408F45CC06093BA037093BB03EF
:102E80008093BC039093BD0386EB93E00E94F4060D
:102E90004091BE035091BF036091C0037091C10384
:102EA000452B462B472B69F4AC01092E000C660B11
:102EB000770B4093C6035093C7036093C803709386
:102EC000C9034091C6035091C7036091C803709134
:102ED000C903841B950B97FF03C0919581959109B8
:102EE00044979CF48091C2039091C303A091C403C2
:102EF000B091C5030196A11DB11D8093C2039093AB
:102F0000C303A093C403B093C5038091BE03909103
:102F1000BF03A091C003B091C1030196A11DB11DD3
:102F20008093BE039093BF03A093C003B093C103EB
:102F30008091BE039091BF03A091C003B091C103E3
:102F40000597A105B10571F51092BE031092BF035C
:102F50001092C0031092C1038091C2039091C303E9
:102F6000A091C403B091C5030397A105B10570F00A
:102F70008091C6039091C703A091C803B091C90383
:102F80008C019093CB038093CA0304C00091CA03C1
:102F90001091CB031092C2031092C3031092C4038A
:102FA0001092C503C80164E670E00E949F3068304B
:102FB000710528F4FB01E25FFE4F808101C080E0D3
:102FC00080931E020E941A140E94042B20E030E01D
:102FD0004AE754E40E94B22D20911A0230911B025C
:102FE00040911C0250911D020E94D32C6093160246
:102FF00070931702809318029093190280E293E075
:1030000090935B0480935A048091840390E09093A2
:103010005D0480935C0420911903253009F056C0AB
:103020002091200326582D3540F48330910541F43A
:103030008091210381528931C0F00E94520E46C016
:1030400083349105D4F38091210383548F32A8F700
:1030500080E090E0DC0122E030E0F901E05EFC4F2E
:1030600040814850473050F0E8CF8091220388508B
:10307000873018F7109259040C94DD28F901EF5DA0
:10308000FC4F408147514331B8F4B695A7959795C9
:103090008795B0682E5F3F4F22343105F1F620E26C
:1030A000209359048093550490935604A093570499
:1030B000B09358040C94DD2840814850473008F004
:1030C000BCCFB695A79597958795E4CF80910C02D4
:1030D00090910D02019690930D0280930C02209125
:1030E000150212164CF48938934134F010921502EF
:1030F00010920D0210920C0210920B028FE692E0D9
:103100000E94CA02181619064CF481E080930B0243
:103110008FE692E00E94A80280930A0280910B023F
:10312000882311F40C94742880910A02909109026A
:10313000853561F491110AC0809108028F3FE1F456
:1031400081E0809307028093090216C080930802F1
:10315000992391F0E0910702E23019F4809306027E
:1031600007C0E33028F09091060291509093060238
:10317000F0E0EE56FE4F8083809107028F5F84332C
:1031800018F48093070204C01092070210920902FB
:1031900080910902882311F40C947428D0900602BF
:1031A000D1100C94742880910702843010F40C9490
:1031B0007428109209021091950110930502F09065
:1031C000970180919601823011F40C94C22024F46E
:1031D000813061F00C947228843011F40C945228E0
:1031E000853011F40C9470280C94722851E0F51677
:1031F00029F00E948709812F0E94200910919801CF
:10320000812F90E04F2DFF0C550B660B770B44334D
:10321000510508F0B3C7FA01EC5CFF4F0C94B330D2
:103220000091990161E0812F0E94091360E0812FD4
:103230000E94DA1283E090E00197F1F761E0812FBC
:103240000E94DA12C1010197F1F760E0812F0E941C
:10325000DA1260E0802F0E940913802F90E0FC01B9
:10326000E85DFB4F6491FC01EC5EFB4FE491F0E004
:10327000EE0FFF1FE859FB4F8591949108EB16E57F
:1032800020E030E0462F0E94701461157105810521
:103290009105C1F0DC01CB010196A11DB11DBC015E
:1032A000CD019F70611571058105910559F00E944E
:1032B000062B20E030E048E652E40E94B22D6B017C
:1032C0007C0106C0C12CD12CB8ECEB2EB3E4FB2E54
:1032D0000E948709809105020E942009C701B6015A
:1032E00026C7209199014091CC0450E0841795079E
:1032F00041F4622F70E04091CD0450E064177507EF
:1033000051F1880F991FFC01E65CFE4F908190936C
:10331000CA0481818093CB041093CC042093CD0404
:10332000223011F40C947828892F90E0FC01E85D9C
:10333000FB4FE491E093CE04FC01EC5EFB4FE49183
:10334000F0E0EE0FFF1FE859FB4F859194919093A9
:10335000D0048093CF040E9474128CEC0E94081257
:1033600084E40E9408120E941A146B017C0190915F
:10337000CE04E091CF04F091D0048181292F2095D3
:10338000822381838281892B8283D1011197F1F776
:103390008081892311F40C947B280E9474128CEC98
:1033A0000E9408128EEB0E940812DE011196AE01F7
:1033B0004A5F5F4F6FEC70E0F8E0CF2ED12C00E059
:1033C000FF24F3941091CE04E091CF04F091D00447
:1033D000F8942181212B21832281E12EE0942E215A
:1033E000228327E030E0C9010197F1F72181E22231
:1033F000E1822281212B2283C1010197F1F72081F3
:103400007894FB013197F1F7122309F00F29FF0C93
:1034100091E0C91AD108B1F60D934A175B0761F61E
:1034200069817A81072E000C880B990B0E94062B6C
:1034300020E030E040E85DE30E94652B78C62091F3
:10344000AF0430E08217930751F0612F8DEA94E0CA
:103450000E94E40660E08091AE040E9409138DEAA8
:1034600094E00E94F40654C60091990120910F0443
:1034700030E08217930729F0612F8DE094E00E94DD
:10348000E406013059F48DE094E00E940007209199
:10349000C6013091C7018A5E91400CC0023071F4C0
:1034A0008DE094E00E94F4068A5E91402091C8016C
:1034B0003091C901BC01620F731F8FC060E070E0E2
:1034C0008CC080910E02882309F458C66AEA73E022
:1034D000CE0101960E94C404CE0101960E94650EA1
:1034E000CE0101960E94BF0410920E028AEA93E078
:1034F0000E94110A43C6109199010E941A140E9459
:10350000042B20E030E04AE754E40E94B22D2091E1
:1035100011023091120240911302509114020E9444
:10352000D32C2DEC3CEC4CE45EE30E94D92E181613
:103530005CF040911502042E000C550B212F30E059
:1035400081E04217530709F080E00E94760906C027
:10355000809115020E9476091092150210921002B5
:1035600010920F020BC62091AF0430E08217930730
:1035700051F0612F8DEA94E00E94E40660E08091B2
:10358000AE040E9409138DEA94E00E94960E56C084
:103590002091AF0430E08217930779F0612F8DEA14
:1035A00094E00E94E40660E08091AD040E9409135B
:1035B00060E08091AE040E94091360E08DEA94E01F
:1035C0000E941C07182F8DEA94E00E94960E612F2E
:1035D00070E0660F771F680F711D072E000C880BB7
:1035E000990B9AC5009199012091AF0430E08217A0
:1035F000930711F00C948C28402F50E02091B004D8
:1036000030E04217530711F00C948C2862E001302F
:1036100059F48091AD040E94091360E08DEA94E0B2
:103620000E941C0780270AC08091AE040E940913E3
:103630008DEA94E00E94960E61E08627682F70E084
:1036400080E090E00E94042B72C5FC01EE0FFF1F8A
:10365000E058FE4F14910091990160E0812F0E9483
:103660000913812F0E94A41311E00B970CF010E0B6
:10367000812F80270E9476091093D0017FC5209169
:10368000E80330E08217930709F48AC0612F86EEC1
:1036900093E00E94E4068091E7039091E603909303
:1036A000CB018093CA010E94200E61E086EE93E078
:1036B0000E940C0780E78BA3BE016D5D7F4F80E009
:1036C0000E94A80E80E28CA3BE016C5D7F4F81E05A
:1036D0000E94A80E81E08093F2038DA3BE016B5D72
:1036E0007F4F82E00E94A80EDE0111967D0100E06E
:1036F00010E0C8010E94232CF70181937F010F5F26
:103700001F4F0A311105A9F72D813E814F81588540
:1037100069817A818B819C810E94D42C29853A858C
:103720004B855C850E94D42C2D853E854F8558891C
:103730000E94D42C29893A894B895C890E94D42C17
:103740002D893E894F89588D0E94D42C6B017C01B4
:10375000698D70E080E090E00E94062B9B01AC0137
:10376000C701B6010E94D42C20E030E04AE253E4C5
:103770000E94D42C0E942B2E8A8D68130DC08AE1E2
:10378000FE013196A3EFB3E001900D928A95E1F727
:1037900081E08093EA0302C01092EA030E94230FA3
:1037A0000E94230FAE014F5F5F4FBE01655E7F4FEA
:1037B000CE0181960E94B711882331F0682F880FBF
:1037C000770B880B990BA8C48091EA0369A17AA1B1
:1037D0000B8D1C8D882309F485C0072E000C880BE7
:1037E000990B0E94062B2091F3033091F403409132
:1037F000F5035091F6030E94D42C2091FF033091E1
:10380000000440910104509102040E94652B0E9423
:10381000242E4B015C01B801110F880B990B0E94FB
:10382000062B2091F7033091F8034091F903509152
:10383000FA030E94D42C2091030430910404409197
:103840000504509106040E94652B0E94242E6B01F2
:103850007C0169817A81072E000C880B990B0E94EC
:10386000062B2091FB033091FC034091FD03509106
:10387000FE030E94D42C209107043091080440914B
:10388000090450910A040E94652B0E94242E209165
:103890000B04213029F4072E000C880B990B15C05E
:1038A000223069F4072E000C880B990B0E94062B1E
:1038B0006B017C01B401990C880B990B1FC023305C
:1038C00039F5B401990C880B990B0E94062B4B011A
:1038D0005C01B601DD0C880B990B0E94062BA5013B
:1038E000940110C0072E000C880B990B0E94062B28
:1038F0006B017C01B801110F880B990B0E94062BFC
:10390000A70196010E94532D6DA77EA78FA798ABA4
:1039100020E030E0A9016DA57EA58FA598A90E94A1
:10392000FF2A87FF0FC02BED3FE049EC50E46DA567
:103930007EA58FA598A90E94D42C20E030E044E316
:1039400053E408C020E030E044E353E46DA57EA5D5
:103950008FA598A90E94652B2BED3FE049E450E428
:103960000E94B22DE4C3709099012091E10330E0F0
:103970008217930729F0612F8FED93E00E94E406F0
:103980009E012F5F3F4F290185E0D9011D928A9545
:10399000E9F761E08FED93E00E940C076AEF70E0B9
:1039A00080E090E00E94E01360E08FED93E00E94E1
:1039B0000C0764E170E080E090E00E94E01361E0B9
:1039C0008FED93E00E940C078BE990E00197F1F7EF
:1039D00060E08FED93E00E940C07C1010197F1F7C1
:1039E0000E941A146B017C018FED93E00E94960EE9
:1039F000811110C00E941A14DC01CB018C199D09A1
:103A0000AE09BF090597A105B10570F31092E30354
:103A10001092E4030E941A146B017C018FED93E075
:103A20000E94960E811103C000E010E04AC00E947F
:103A30001A14DC01CB018C199D09AE09BF09059749
:103A4000A105B10558F3F0CF0E941A14DC01CB0197
:103A50008C199D09AE09BF090597A105B10530F480
:103A60008FED93E00E94960E882371F30E94BB13A2
:103A70006B017C010E941A144B015C018FED93E0F5
:103A80000E94960E811122C00E94BB13DC01CB0163
:103A90008C199D09AE09BF09F80163E0F595E7951A
:103AA0006A95E1F78997A105B105E8F0E40DF51DE8
:103AB0008081880F816080830F5F1F4F083211055E
:103AC000B9F00E941A146B017C01CACF0E941A142B
:103AD000DC01CB0188199909AA09BB090597A10541
:103AE000B10560F2D1CFE40DF51D8081880FE3CFE1
:103AF00059814B812D8130E06A81852F90E0860FBE
:103B0000911D840F911D6C81860F911D9927281797
:103B1000390721F45093E3034093E403711003C089
:103B20008091E30329C38091E40326C32091DB0342
:103B300030E082179307D1F0612F89ED93E00E9466
:103B4000E4068091D9039091DA039093DD0380938A
:103B5000DE038091DD0360E00E9409138091DE03A3
:103B60008093D9038091DD038093DA0389ED93E09C
:103B700022C02091D50330E082179307D1F0612F46
:103B800083ED93E00E94E4068091D3039091D403E7
:103B90009093D7038093D8038091D70360E00E946D
:103BA00009138091D8038093D3038091D703809326
:103BB000D40383ED93E00E940007BC01990F880BAA
:103BC000990B0E94062B0E942509D8C2B091990139
:103BD000B9A74EE065E474E08BE30E94A50D811166
:103BE0003FC2A0904504B0904604BA24AB24BA2446
:103BF000B0923404A0923304E0904704F09048045B
:103C0000FE24EF24FE24F0923604E0923504009165
:103C1000490410914A0410270127102710933804F3
:103C200000933704409017045090180460901904D2
:103C300070901A0460914D0470914E0476276727A6
:103C40007627072E000C880B990B0E94062B2091DB
:103C5000390430913A0440913B0450913C040E9455
:103C6000D32CA30192010E94B22D6093270470937C
:103C700028048093290490932A0460914F04709142
:103C80005004762767277627072E000C880B990BA0
:103C90000E94062B20913D0430913E0440913F0448
:103CA000509140040E94D32CA30192010E94B22D96
:103CB00060932B0470932C0480932D0490932E0416
:103CC0006091510470915204762767277627072E5A
:103CD000000C880B990B0E94062B20914104309117
:103CE000420440914304509144040E94D32CA30108
:103CF00092010E94B22D60932F0470933004809340
:103D0000310490933204B701FF0C880B990B0E9489
:103D1000062B6B017C01B801110F880B990B0E94D7
:103D2000062B9B01AC010E94652B2B013C01A701D6
:103D30009601C701B6010E94652BA30192010E9462
:103D4000D42C0E943C2F69AB7AAB8BAB9CABB501FA
:103D5000BB0C880B990B0E94062B4B015C0129A917
:103D60003AA94BA95CA90E94532D20E030E044E31E
:103D700053E40E94652B2AED3FE049E450E40E94A1
:103D8000B22D69AB7AAB8BAB9CABA5019401C5019D
:103D9000B4010E94652BA30192010E94D42C0E94C1
:103DA0003C2F9B01AC01C701B6010E94532D20E0BE
:103DB00030E044E353E40E94652B2AED3FE049E400
:103DC00050E40E94B22D69AF7AAF8BAF9CAF0E94D6
:103DD0001A140091CC011091CD012091CE013091A7
:103DE000CF01601B710B820B930B0E94042B20E010
:103DF00030E04AE754E40E94B22D6B017C010E943E
:103E00001A146093CC017093CD018093CE019093EE
:103E1000CF01809137049091380420912B04309188
:103E20002C0440912D0450912E04181619067CF58F
:103E3000C701B6010E94652B9B01AC0160911B0478
:103E400070911C0480911D0490911E040E94D32C3B
:103E500060931B0470931C0480931D0490931E04B4
:103E600020912704309128044091290450912A047C
:103E7000C701B6010E94652B20911F0430912004D8
:103E800040912104509122040E94D42C2EC0C701DD
:103E9000B6010E94652B20911B0430911C044091B7
:103EA0001D0450911E040E94D42C60931B04709337
:103EB0001C0480931D0490931E04209127043091CC
:103EC00028044091290450912A04C701B6010E9498
:103ED000652B9B01AC0160911F04709120048091BF
:103EE0002104909122040E94D32C60931F047093AC
:103EF0002004809321049093220420912F04309178
:103F000030044091310450913204C701B6010E943F
:103F1000652B209123043091240440912504509175
:103F200026040E94D42C4B015C0120E030E044EBDD
:103F300053E40E94B22D0E945A2E20E030E044EB60
:103F400053E40E94652B9B01AC01C501B4010E94A2
:103F5000D32C4B015C0120E030E044E353E40E94A9
:103F6000D92E18164CF08092230490922404A0922B
:103F70002504B092260410C020E030E044EB53E466
:103F8000C501B4010E94D32C6093230470932404D0
:103F9000809325049093260420E030E040E05FE326
:103FA000C701B6010E94D42C9B01AC0160E070E017
:103FB00080E09FE30E94B22D6B017C019B01AC016C
:103FC00060E070E080E89FE30E94D32C4B015C012D
:103FD00020911B0430911C0440911D0450911E043B
:103FE000C701B6010E94652B2B013C01A50194017C
:103FF00069A97AA98BA99CA90E94652B9B01AC0198
:10400000C301B2010E94D42C60931B0470931C0462
:1040100080931D0490931E0420911F04309120046E
:104020004091210450912204C701B6010E94652BE2
:104030006B017C01A501940169AD7AAD8BAD9CAD9E
:104040000E94652B9B01AC01C701B6010E94D42CD4
:1040500060931F04709320048093210490932204A2
:10406000E9A5E13069F420911B0430911C044091D2
:104070001D0450911E042DAB3EAB4FAB58AF1FC07B
:1040800039A5323069F440911F04509120046091A9
:104090002104709122044DAB5EAB6FAB78AF0FC0C3
:1040A00059A5533061F460912304709124048091E8
:1040B0002504909126046DAB7EAB8FAB98AF6DA9B4
:1040C0007EA98FA998AD33C060EB73E0CE01019655
:1040D0000E94C404CE0101960E94650ECE01019695
:1040E0000E94BF044BC060E0812F0E940913812F02
:1040F0000E94B1120DC0FC01EE0FFF1FE058FE4FF1
:10410000149160E0812F0E940913812F0E94A41353
:10411000BC01990F880B990B0E94062B08C0609177
:1041200016027091170280911802909119020E9454
:104130004E0924C02091CF0330E08217930729F065
:10414000612F8DEC93E00E94E4068DEC93E00E94D9
:10415000960E12C02091B80330E08217930729F021
:10416000612F86EB93E00E94E40681E020919901A3
:1041700090911E02291380E00E9476090E949909FD
:104180000C947228E09098010E2D10E07DE0F71657
:1041900009F4AEC67F150CF441C088E0F81609F4A6
:1041A00075C08F155CF193E0F91609F48EC6A5E091
:1041B000FA120C94702886E090E00E9411097C01AC
:1041C00069E08DED94E00E94E40604EF11E01093A5
:1041D000E4040093E304C7010E94680D88E090E0C6
:1041E0000E9411097C016AE08DED94E00E94E406D2
:1041F0001093E4040093E304C70145C0BAE0FB1642
:1042000059F1FB160CF4D4C0EBE0FE1269C7F09034
:104210009A01E5EFF1E080E090E0A2C0F1E2FF1644
:1042200009F4E7C6FF1564F02EE1F21609F4B7C6EB
:1042300030E2F31609F4BDC644E1F41251C78FC64B
:1042400059E2F51609F4C2C162E3F61609F417C77C
:1042500072E2F71245C7B8C687E090E00E941109E4
:104260006C018091DF0490E00817190759F06E2D5A
:104270008DED94E00E94E40684EF91E09093E404D5
:104280008093E304C6010E94680D2AC7C09099017B
:10429000F0909A01B0909B01A0909C0190909D019C
:1042A0008091BD0490E00817190709F046C72C2D2E
:1042B00030E08091BE0490E02817390709F03DC72F
:1042C0001FC092E0C91276C78091BC04282F30E04D
:1042D000F901E85DFB4FE491E093C904F901EC5E5C
:1042E000FB4FE491F0E0EE0FFF1FE65FFB4F2591DF
:1042F00034913093C6042093C50461E00E940913F1
:10430000FF2031F1FA942F2D30E08091BF0490917D
:10431000C0042817390708F58F2D880FF80E8F2D48
:1043200090E0E091C104F091C204E80FF91FA0826F
:10433000E091C104F091C204E80FF91FB18220910D
:10434000C1043091C204F901E80FF91F928205C03F
:10435000492D6A2D8B2D0E943B0D0E94DF0CC0C69B
:10436000219131910217130781F0232B41F4FC01B5
:10437000EE0FFF1FEB50FE4F1183008306C0019626
:104380008830910569F780E090E0FC01EE0FFF1F97
:104390008E0F9F1FFC01EB51FB4F80819181A28109
:1043A00089839A83AB83A4EBAF1508F499C64EC6F4
:1043B0008091B30490E00817190781F1E092B304EB
:1043C000000F111FF801E65CFE4F81818093B2045B
:1043D00090819093B1048093B9049093BA0461E002
:1043E0000E94091361E08091BA040E94091380E4DD
:1043F0008093B50480EC8093B6048AE88093B70478
:1044000025962CAD3DAD4EAD5FAD259729833A8302
:104410004B835C83CE0101960E948E0C80919901A2
:1044200080938E0180919A0180938F0180919B01EE
:104430008093900180919C018093910140908E0126
:1044400050908F01609090017090910119821A82B2
:104450001B821C8220E030E0A901C301B2010E944E
:10446000FF2A87FF08C077FA709477F8709481E28A
:10447000898311E001C010E0ADEFAA2EBB24BA94ED
:10448000B3E08B2E912C19A600E097FC4CC0B40130
:104490006F5F7F4F072E000C880B990B0E94062B35
:1044A0009B01AC0160E070E080E291E40E94E62EA6
:1044B0006B017C019B01AC01C301B2010E94B22DD2
:1044C0000E945A2E69AB7AAB8BAB9CABB401092C22
:1044D000000C880B990B0E94062B9B01AC0160E03D
:1044E00070E080E291E40E94E62E69AF7AAF8BAF74
:1044F0009CAF29A93AA94BA95CA9C701B6010E94A2
:10450000652B9B01AC01C301B2010E94D32C29ADE4
:104510003AAD4BAD5CAD0E94B22D0E945A2E0E9466
:10452000242ECB0123C020E030E040E251E4C3015F
:10453000B2010E94652B32E0A316B10484F020E0A2
:1045400030E040E251E40E94652B42E0A416B10441
:1045500031F020E030E040E251E40E94652B0E94FF
:10456000242ECB016AE070E00E949F3018161906D5
:1045700034F0033031F059A55523B9F00CC00330A5
:1045800051F4E1E0F0E0EC0FFD1FE10FF11D60E1FF
:10459000680F608307C0E1E0F0E0EC0FFD1FE10F62
:1045A000F11D80831F5F61E069A7143050F40F5F35
:1045B00071E0871A91088FEFA81AB80A073009F03E
:1045C00064CFCE0101960E948E0C8AC580917E0434
:1045D00090E008171907B1F1000F111FF801E65C10
:1045E000FE4F808180938004918190938104E092BA
:1045F0007E0461E00E94091361E0809181040E94C1
:10460000091361E0809180040E94DA1261E08091D8
:1046100081040E94DA1280E40E94440B8CE80E941C
:10462000440BE4E8F4E084E994E011928E179F07CC
:10463000E1F781E0809382041092830484E894E09F
:104640000E94E70A80919901282F30E0813009F01B
:104650006DC120919A01022E000C330BD0909B016A
:1046600080919C0190E04DE951E001ED11E0F801ED
:10467000BF01615D7140681779072CF4DA016D9113
:10468000AD016193F5CFFC01EF52FE4F108281E046
:1046900080938304E9E9F4E0A12CB12CD8018D9139
:1046A0008D01882349F0B3E1AB16B10429F0819361
:1046B0004FEFA41AB40AF2CFB0929804A0929704D4
:1046C000F501E458FB4F158E4AEFB5014603C001D2
:1046D000479F900D11242817390734F021313105F7
:1046E00024F020E130E001C09C0130939504209338
:1046F00094044D2D40310CF04FE0D42E47FF02C002
:10470000DD24DA94D0929604121613060CF069C0D8
:10471000E4E8F4E080E090E0182F8217930739F086
:1047200001968131910509F4CDC01192F5CF803108
:1047300009F4C8C000E077E0F72EE0E2EE2E202F6B
:1047400030E02A153B050CF043C0C12CD901A75617
:10475000BB4FFC9CC001112480579E4FFC0144912B
:10476000403441F144916C91062E000C770B50E0DF
:1047700064177507E9F4F7E0CF9EA001112460E00B
:1047800070E04F5F5F4FFA01E60FF71FE057FE4FF3
:10479000E491A12FB0E0A458BB4F1896EC931F5F93
:1047A000103141F06F5F7F4F6630710561F702C0D5
:1047B000C394CFCFFC018491803429F4F901E458EB
:1047C000FB4FE58E01500F5F103109F0B8CF7AC072
:1047D000E12FF0E0E458FB4F10861F5F1031C1F766
:1047E00071C08217930741F4E4E8F4E0119224E0E9
:1047F000E439F207D9F766C0EE27FF27E21BF30B77
:10480000CF0166E070E00E949F30F0939504E09342
:104810009404AB0190E007E0902E60E2C62E4A15AA
:104820005B050CF046C0812C8A0107561B4F989CF3
:10483000D0011124BD0160577E4FFB01F490F0E4DC
:10484000FF1619F1FB017490F801E0800E2C000CAA
:10485000FF08E72DF0E0EE16FF06A1F4FD01E80FDA
:10486000F11D87FDFA95EF56FE4F1491E92FF0E008
:10487000E458FB4F10879F5F903131F08F5F863097
:1048800069F702C08394D3CF80E0FB016491603468
:1048900031F4FA01E458FB4FC58E415051094F5F86
:1048A0005F4F903109F0BBCF30939504209394046F
:1048B00009C0E92FF0E0E458FB4F10869F5F90316C
:1048C000C1F7F2CF8D2DDD0C990B27E030E0281BCE
:1048D000390BE4E8F4E037FD12C08081022E01C0FC
:1048E000880F0A94EAF7819344E0E439F407A9F7C2
:1048F000809182048111DAC2E4E8F4E00FC00797E6
:10490000208130E0082E02C0359527950A94E2F701
:10491000219354E0E439F50799F7EACF8081809537
:10492000819364E0E439F607C9F7C0C2823009F028
:1049300090C020919A0110919B01ACE9B1E065EF24
:1049400071E0E5EEF1E08D9181936E177F07D9F765
:1049500020310CF0C5C318300CF0C2C38091820422
:10496000412F012E000C550B022E000C330B882317
:10497000B9F188E090E0841B950B0FEF01C0000FA8
:104980008A95EAF7D901A458BB4FE5EEF1E0255E20
:104990003140EE24FF24E41AF50AC9018E0F9F1F4F
:1049A00097FD18C01896DC901897D02280811116B8
:1049B00044F490E0042E02C0959587950A94E2F79E
:1049C00005C00E2C01C0880F0A94EAF78D291896AD
:1049D0008C931897119631966E177F07F1F666C281
:1049E00088E090E0841B950B0FEF01C0000F8A95C3
:1049F000EAF7D901A458BB4FE5EEF1E0255E31405E
:104A0000CC24DD24C41AD50AC9018E0F9F1F97FD3F
:104A10001AC01896FC901897F022808190E080953B
:104A2000909511163CF4042E02C0959587950A9432
:104A3000E2F705C00C2C01C0880F0A94EAF78F2911
:104A400018968C931897119631966E177F07E1F69A
:104A50002DC22330310509F092C020919A01809136
:104A60009B0140919C013AE0632F0E947F30592FB7
:104A7000682F70E0CB01880F991F860F971FFC01EC
:104A8000ED51FC4FE491E0938404FC01EC51FC4FA8
:104A9000E491E0938504FC01EB51FC4FE491E09339
:104AA000860410928704852F90E0FC01EE0FFF1F13
:104AB0008E0F9F1FFC01ED51FC4FE491E0938804A1
:104AC000FC01EC51FC4FE491E0938904FC01EB51B3
:104AD000FC4F849180938A04842F632F0E947F303F
:104AE000392F482F50E0CA01880F991F840F951F56
:104AF000FC01ED51FC4FE491E0938D04FC01EC517D
:104B0000FC4FE491E0938E04FC01EB51FC4FE491E7
:104B1000E0938F0410929004832F90E0FC01EE0F3D
:104B2000FF1F8E0F9F1FFC01ED51FC4FE491E0939E
:104B30009104FC01EC51FC4FE491E0939204FC01E0
:104B4000EB51FC4F849180939304222331F088E24F
:104B500080938B0480938C0404C010928B04109279
:104B60008C04809182048111A1C1E4E8F4E0808189
:104B70008095819374E0E439F707C9F797C1243031
:104B8000310509F0ADC280919A0180938E01809128
:104B90009B0180938F0180919C0180939001809173
:104BA0009D0180939101C0908E01D0908F01E09083
:104BB0009001F090910146015701B7FAB094B7F80F
:104BC000B09420E030E0A901C701B6010E94FF2A9D
:104BD000482E441C4424441C87FF05C0582C092D32
:104BE0007A2C6B2C04C05C2C0D2D7E2C6F2C13E0CA
:104BF00021968CAD9DADAEADBFAD21978B8F9C8FB7
:104C0000AD8FBE8F20E03EE34CE156E4C701B60114
:104C10000E94D92E87FD03C089E08B8F13C020E04E
:104C200030EE49E754ECC701B6010E94FF2A18167E
:104C300034F4B12C60E070E080E09FE307C08BE0CB
:104C40008B8F89E08C8F8D8F8E8FC0C01B1541F0AC
:104C500020E030E040E251E40E94B22DB394F6CF60
:104C6000252D302F472D562D0E94D42C4B015C0151
:104C70000E942B2E9B01AB01E0E0CA016AE070E0CC
:104C80000E948B30A1E0B0E0AC0FBD1FAE0FB11D94
:104C90009AE0699F401911244C93EF5FAB01672B99
:104CA00061F79E2F940D812F890F853018F014E045
:104CB000191B9ECF04E0081B442041F0DE01A00F29
:104CC000B11D9BE05B969C9305E0081B8E2F0E0F99
:104CD000902F981B882369F0EBE1F0E0EC0FFD1FAB
:104CE000E90FF11DDE01A80FB11D9C919083815049
:104CF000EFCF112309F46AC0B90180E090E00E946F
:104D0000042B9B01AC01C501B4010E94D32C6B01A3
:104D1000E82EF92E033061F420E030E040E251E467
:104D20000E94652B0E94242E672BF1F48CE08CCF1F
:104D3000023061F420E030E048EC52E40E94652B40
:104D40000E94242E672B81F48CE07DCF013061F42A
:104D500020E030E04AE754E40E94652B0E94242EB4
:104D6000672B11F48CE06ECFBB24B394B00EEBE153
:104D7000F0E0EC0FFD1FE00FF11D8AE08083115081
:104D800028F120E030E040E251E4B601C7010E9482
:104D9000652B6B017C010E94242E01E00B0DEBE1E1
:104DA000F0E0EC0FFD1FEB0DF11D6083072E000CF2
:104DB000880B990B0E94062B9B01AC01C701B60121
:104DC0000E94D32C6B017C01B02ED9CF8B8D90E04B
:104DD000FC01EE0FFF1F8E0F9F1FFC01ED51FC4FDA
:104DE000E491E0938404FC01EC51FC4FE491E093E6
:104DF0008504FC01EB51FC4FE491E0938604109292
:104E000087048C8D90E0FC01EE0FFF1F8E0F9F1F1B
:104E1000FC01ED51FC4FE491E0938804FC01EC515E
:104E2000FC4FE491E0938904FC01EB51FC4FE491C9
:104E3000E0938A0410928B048D8D90E0FC01EE0FBC
:104E4000FF1F8E0F9F1FFC01ED51FC4FE491E0937B
:104E50008C04FC01EC51FC4FE491E0938D04FC01C7
:104E6000EB51FC4FE491E0938E0410928F048E8DF1
:104E700090E0FC01EE0FFF1F8E0F9F1FFC01ED5114
:104E8000FC4FE491E0939004FC01EC51FC4FE49161
:104E9000E0939104FC01EB51FC4FE491E093920408
:104EA0001092930480918204882329F084E894E08E
:104EB0000E94E70A15C1E4E8F4E0808180958193BF
:104EC000A4E0E439FA07C9F7F1CF8091AF0490E08C
:104ED0000817190729F06E2D8DEA94E00E94E40668
:104EE00011E080919901811101C010E061E047C09B
:104EF0006CE871E0CE014B960E94DE0400919401B3
:104F000010E00350110982E9E82E81E0F82EC70174
:104F1000825991408017910754F4F7016681CE01C0
:104F20004B960E946404FFEFEF1AFF0AF0CFBE0118
:104F3000655E7F4FCE0101960E94C404CE010196AA
:104F40000E941E0ACE0101960E94BF04CE014B961C
:104F50000E94110ACE014B960E94BF04C1C08091ED
:104F6000AF0490E00817190729F06E2D8DEA94E040
:104F70000E94E4061091990161E0123040F48091A2
:104F8000AD040E940913612F8091AD040FC012304F
:104F900009F460E08DEA94E00E940C07A1C061E092
:104FA0008E2D0E940913609199018E2D0E94DA12B4
:104FB00097C061E08E2D0E9409136091990170E005
:104FC0008E2D0E9445138CC086E090E00E9411094E
:104FD0008C0188E090E00E941109101611060CF077
:104FE0007DC0AC01990F660B770BC8010E94A10927
:104FF00077C0F0909901E5EFF1E080E090E0219139
:1050000031910217130781F0232B41F4FC01EE0FBD
:10501000FF1FEB50FE4F1183008306C001968830BE
:10502000910569F780E090E0FC01EE0FFF1F8E0F05
:105030009F1FFC01EB51FB4F80819181A2818983ED
:105040009A83AB8324EB2F1508F44AC0898190E042
:10505000FC01EE0FFF1F8E0F9F1FFC01EB57FC4F53
:10506000808187FD05C0B801CE0101960E94C70569
:105070006F2D70E0CE0101960E944B0531C00E9459
:105080001A140E94042B20E030E04AE754E40E9406
:10509000B22D60931A0270931B0280931C029093AE
:1050A0001D021EC069E08DED94E00E94E40604EF4D
:1050B00011E01093E4040093E30480E090E00E9488
:1050C000680D6AE08DED94E00E94E4061093E4041C
:1050D0000093E30480E090E00E94680D0E948D0937
:1050E0000E947F09109207020E9471030C9401171D
:1050F000982F0C9494190E941A14DC01CB018C197E
:105100009D09AE09BF098E3E9240A105B10510F47C
:105110000C94B7190C94CD19880F991FFC01E65C0B
:10512000FE4F80818093AD0481818093AE04109303
:10513000AF040093B0040C94061BE092BD04C0922F
:10514000BE04000F111FF801E65CFE4F81818093C1
:10515000BC0480818093BB0440E060E080E00E945A
:105160003B0D20E030E052E041E08091BF0490919F
:10517000C0042817390708F0A4C88D2D90E0E091ED
:10518000C304F091C404E80FF91F5083E091C304F5
:10519000F091C404E80FF91F11826091C30470916B
:1051A000C404FB01E80FF91F42832F5F3F4F83E0E8
:1051B000D80EDBCF8091BB0489C881E08093540472
:1051C0000E94520EC0905504D0905604E0905704AF
:1051D000F09058046701EE24FF241C2DC0921502A4
:1051E0000E941A140E94042B20E030E04AE754E4A5
:1051F0000E94B22D609311027093120280931302E9
:10520000909314021A3011F01D3049F410921002DC
:1052100010920F0281E080930E020C9478186C2D8E
:105220008AEA93E00E94640480910F029091100238
:1052300001968134910534F49093100280930F020B
:105240000C9478181092100210920F028AEA93E0E0
:105250000E94110A0C947818FC01108211821282AB
:105260000895CF93DF938AEA93E00E94BF0480EB16
:1052700093E00E94BF048EE694E00E94BF0488E69B
:1052800094E00E94BF04CBEBD4E08E819F810E940A
:10529000513188859985DF91CF910C945131CF930D
:1052A000109272021092710288EE93E0A0E0B0E0DA
:1052B0008093730290937402A0937502B093760268
:1052C0002AE131E03093700220936F0225EC30E048
:1052D00030937C0220937B0224EC30E030937E02FA
:1052E00020937D0220EC30E03093800220937F02F7
:1052F00021EC30E0309382022093810222EC30E0F6
:10530000309384022093830226EC30E030938602AF
:1053100020938502109288021092890210928A02CC
:1053200010928B0221E030E03093FF042093FE04C2
:1053300010920006109201061092020610920306C7
:1053400010920406109205061092060610920706A7
:10535000109208061092090610920A0610920B0687
:1053600010920C0610920D0610920F0610920E0667
:105370001092100610921106109212061092130647
:105380001092140610921506109216061092170627
:105390001092180610920F0310920E0380931003C0
:1053A00090931103A0931203B09313038CE291E046
:1053B00090930D0380930C038091A903A5EEB4E0B4
:1053C0009FEF48EB5BE08C3078F48C93282F30E033
:1053D000F901EE0FFF1F2E0F3F1FF901EB57FC4F96
:1053E000528341838F5F01C09C93139624E0AD3FAD
:1053F000B20749F78093A9031092DD041092DE04EE
:105400001092DF048AEC94E00E942C291092BB04D5
:105410001092BC041092BD04E8E2F4E0E491E09341
:10542000C904E4E1F4E0E491F0E0EE0FFF1FE65F71
:10543000FB4F859194919093C6048093C50461E0DD
:1054400080E00E9409138EE190E09093C004809365
:10545000BF048AE590E00E94B9309093C204809323
:10546000C104892B21F486E691E00E94C23220E03B
:1054700030E08091BF049091C004AC01440F551FEF
:10548000840F951F2817390750F4E091C104F0915B
:10549000C204E20FF31F10822F5F3F4FEACF0E943A
:1054A000B9309093C4048093C304892B21F486E619
:1054B00091E00E94C23280E090E02091BF043091E0
:1054C000C004A901440F551F240F351F82179307ED
:1054D00048F4E091C304F091C404E80FF91F10826E
:1054E0000196EBCF1092BD04C2E0C093BE0481EBE5
:1054F00094E00E942C298DEA94E00E942C298CE7EC
:1055000094E00E942C2988E794E00E942C2988E0EE
:105510008093FD046CE871E088E694E00E94DE046C
:105520006CE871E08EE694E00E94DE0460E082E0C8
:105530000E940913C093180310927404109275040A
:10554000109276041092770410925F0410925E0419
:10555000109260041092660488E694E00E94110A9A
:10556000109267040E94520E61E083E00E940913CA
:1055700060E083E00E94DA1210921104109212048B
:105580001092130488E68093530410920D04109235
:105590000E0410920F041092E6031092E70310928B
:1055A000E8038EE18093F1031092EA031092DF0387
:1055B0001092E0031092E1031092D9031092DA03E3
:1055C0001092DB031092D3031092D4031092D503F0
:1055D0001092CD031092CE031092CF0386EB93E08E
:1055E0000E942C2962E871E080EB93E00E94DE04C7
:1055F0006CE871E08AEA93E0CF910C94DE040E949B
:10560000412B08F481E00895E89409C097FB3EF42B
:1056100090958095709561957F4F8F4F9F4F9923FF
:10562000A9F0F92F96E9BB279395F695879577957D
:105630006795B795F111F8CFFAF4BB0F11F460FF3D
:105640001BC06F5F7F4F8F4F9F4F16C0882311F095
:1056500096E911C0772321F09EE8872F762F05C0A9
:10566000662371F096E8862F70E060E02AF09A9544
:10567000660F771F881FDAF7880F9695879597F939
:105680000895990F0008550FAA0BE0E8FEEF1616D3
:105690001706E807F907C0F012161306E407F50726
:1056A00098F0621B730B840B950B39F40A2661F09A
:1056B000232B242B252B21F408950A2609F4A1403D
:1056C000A6958FEF811D811D08950E94782B0C9463
:1056D000E92B0E94DB2B38F00E94E22B20F095236F
:1056E00011F00C94D22B0C94D82B11240C941D2C5B
:1056F0000E94FA2B70F3959FC1F3950F50E0551F50
:10570000629FF001729FBB27F00DB11D639FAA2716
:10571000F00DB11DAA1F649F6627B00DA11D661F65
:10572000829F2227B00DA11D621F739FB00DA11D86
:10573000621F839FA00D611D221F749F3327A00D40
:10574000611D231F849F600D211D822F762F6A2FDC
:1057500011249F5750409AF0F1F088234AF0EE0F41
:10576000FF1FBB1F661F771F881F91505040A9F76E
:105770009E3F510580F00C94D22B0C941D2C5F3F62
:10578000E4F3983ED4F3869577956795B795F795AA
:10579000E7959F5FC1F7FE2B880F911D9695879522
:1057A00097F9089597F99F6780E870E060E00895A1
:1057B0009FEF80EC089500240A9416161706180629
:1057C0000906089500240A94121613061406050605
:1057D0000895092E0394000C11F4882352F0BB0F96
:1057E00040F4BF2B11F460FF04C06F5F7F4F8F4FF9
:1057F0009F4F089557FD9058440F551F59F05F3F34
:1058000071F04795880F97FB991F61F09F3F79F0E2
:1058100087950895121613061406551FF2CF469564
:10582000F1DF08C0161617061806991FF1CF8695E6
:105830007105610508940895E894BB2766277727CA
:10584000CB0197F90895F999FECF92BD81BDF89AE1
:10585000992780B50895262FF999FECF1FBA92BDDA
:1058600081BD20BD0FB6F894FA9AF99A0FBE019641
:105870000895052E97FB1EF400940E94502C57FDAE
:1058800007D00E94A22C07FC03D04EF40C94502C9D
:1058900050954095309521953F4F4F4F5F4F08955C
:1058A00090958095709561957F4F8F4F9F4F08958C
:1058B0000E94C42CA59F900DB49F900DA49F800DB5
:1058C000911D11240895B7FF0C94582C0E94582C58
:1058D000821B930B08952F923F924F925F926F928B
:1058E0007F928F929F92AF92BF92CF92DF92EF9270
:1058F000FF920F931F93CF93DF93CDB7DEB7CA1BF1
:10590000DB0B0FB6F894DEBF0FBECDBF09942A881B
:10591000398848885F846E847D848C849B84AA84C3
:10592000B984C884DF80EE80FD800C811B81AA8150
:10593000B981CE0FD11D0FB6F894DEBF0FBECDBF1B
:10594000ED010895A1E21A2EAA1BBB1BFD010DC09B
:10595000AA1FBB1FEE1FFF1FA217B307E407F5071F
:1059600020F0A21BB30BE40BF50B661F771F881FFB
:10597000991F1A9469F760957095809590959B0191
:10598000AC01BD01CF010895A29FB001B39FC0013A
:10599000A39F700D811D1124911DB29F700D811D5B
:1059A0001124911D08955058BB27AA270E94EB2C63
:1059B0000C94E92B0E94DB2B38F00E94E22B20F0A4
:1059C00039F49F3F19F426F40C94D82B0EF4E0958B
:1059D000E7FB0C94D22BE92F0E94FA2B58F3BA174D
:1059E000620773078407950720F079F4A6F50C94F5
:1059F0001C2C0EF4E0950B2EBA2FA02D0B01B90133
:105A000090010C01CA01A0011124FF27591B99F034
:105A1000593F50F4503E68F11A16F040A22F232F40
:105A2000342F4427585FF3CF469537952795A79590
:105A3000F0405395C9F77EF41F16BA0B620B730B37
:105A4000840BBAF09150A1F0FF0FBB1F661F771FA8
:105A5000881FC2F70EC0BA0F621F731F841F48F45D
:105A6000879577956795B795F7959E3F08F0B0CFE6
:105A70009395880F08F09927EE0F979587950895CD
:105A80000E94DB2B60F080E891E009F49EEF0E9419
:105A9000E22B28F040E851E071F45EEF0CC00C946A
:105AA000D82B0C941C2CE92FE0780E94FA2B40F3A1
:105AB000092E052AB1F3261737074807590738F08A
:105AC0000E2E07F8E02569F0E025E0640AC0EF63D8
:105AD00007F8009407FADB01B9019D01DC01CA0156
