:100000000C9445020C946D020C946D020C946D02DC
:100010000C946D020C946D020C946D020C9490097A
:100020000C946D020C946D020C946D020C94860875
:100030000C946D020C946D020C946D020C946D0284
:100040000C9426140C946D020C947C070C945607A7
:100050000C946D020C946D020C946D020C946D0264
:100060000C94460A0C946D02B0201119BD196B1A3C
:100070006B1A801A321E6B1A0A210A210A210A21E0
:100080000A21AD1AC71AFF1A0A21141BF41A0A21F1
:100090000A213E1BF620FF1CE21D051E8B1B0A21B8
:1000A0000A210A21BF20C7200A210A210A21711B27
:1000B0000A210A210A210A210A210A210A210A21E8
:1000C0000A210A210A210A210A210A21DB20E6202D
:1000D000084AD73B3BCE016E84BCBFFDC12F3D6CAF
:1000E00074319ABD56833DDA3D00C77F11BED9E415
:1000F000BB4C3E916BAAAABE000000803F07634242
:1001000036B79BD8A71A39685618AEBAAB558C1DAE
:100110003CB7CC5763BD6DEDFD753EF6177231BF30
:10012000000000803F08000000BE922449123EAB50
:10013000AAAA2ABECDCCCC4C3E00000080BEABAA01
:10014000AAAA3E00000000BF000000803F0000009F
:100150000000084178D3BB4387D1133D190E3CC33F
:10016000BD4282AD2B3E68EC8276BED98FE1A93EBE
:100170004C80EFFFBE01C4FF7F3F00000000000085
:100180000E000F00100011001200130014001500E3
:100190002000000000000030007C82827C003100E2
:1001A00042FE0200003200468A926200330044920E
:1001B000926C0034001C64FE04003500F292928CB4
:1001C0000036007C92924C003700C08E90E00038E0
:1001D000006C92926C0039006492927C0061000481
:1001E0002A2A1E006200FE12120C0063000C12127A
:1001F000120064000C1212FE0065001C2A2A18006E
:100200006600103E50500067000815151E0068007B
:10021000FE101E00006900002E0000006A000201AE
:100220002E00006B00FE081412006C0000FE02009D
:10023000006D001E100E100E6E001E10100E006FCE
:10024000000C12120C0070001F12120C0071000C36
:1002500012121F0072001E081010007300122925D0
:1002600012007400103E12000075001C02021E00F5
:10027000761804020418007718061C061800780087
:10028000120C0C120079001805051E007A001216D7
:100290001A120041007E88887E004200FE92926C15
:1002A0000043007C828244004400FE82827C004540
:1002B00000FE929282004600FE9090800047007CF3
:1002C00082925C004800FE1010FE00490082FE820F
:1002D00000004A000C0202FC004B00FE1028C60081
:1002E0004C00FE020202004D00FE403040FE4E0077
:1002F000FE403008FE4F007C8282827C5000FE90DF
:1003000090600051007C828A847A5200FE98946248
:100310000053006492924C00540080FE808000558F
:1003200000FC0202FC005600F00C020CF05700FE2C
:10033000043804FE5800C63838C60059C0201E20B4
:10034000C0005A00869AB2C2002C00010E0C0000B8
:100350002E000006060000257254781E2A4E210049
:10036000007A0000003F00204A3000002D001010ED
:100370001010002B08083E0808002F00020C304027
:10038000002A2214081422003A000014000000225F
:1003900000C000C000002328FE28FE28002800001E
:1003A0007C820000290000827C00003B00022400C7
:1003B00000007E0040804080003B000224000000DE
:1003C0003D0028282828007C0000FE0000003E0098
:1003D00082442810003C00102844820040000000A5
:1003E0000000007C447C007C005C547454547C709D
:1003F000107C74545C7C545C40407C7C547C745411
:100400007C000400202020000000000000002500E7
:1004100028002B0004040404040404040202020261
:1004200002020303030303030102040810204080B7
:100430000102040810200102040810203F065B4F4F
:10044000666D7D077F6F777C395E7971BF86DBCF04
:10045000E6EDFD87FFEFF7FCB9DEF9F100400000A3
:100460000000240027002A000000000023002600CE
:10047000290000000008000201000003040700003A
:10048000000000000000B629982911241FBECFEFFC
:10049000D8E0DEBFCDBF11E0A0E0B1E0E2EEF6E6CD
:1004A00002C005900D92A039B107D9F726E0A0E966
:1004B000B1E001C01D92AD3AB207E1F712E0C4E429
:1004C000D2E004C02197FE010E942531C334D10738
:1004D000C9F70E94B5140C9464330C940000CF93B8
:1004E000C091BD0461E08C2F0E94091360E08C2F45
:1004F000CF910C94DA1242E050E06CE871E081E2B6
:1005000092E00C94D2043F924F925F926F927F924E
:100510008F929F92AF92BF92CF92DF92EF92FF9213
:100520000F931F93CF93DF934A015B019C0140E03F
:1005300050E060E472E48FE090E00E94AB2C69012F
:100540007A013090BD0461E0832D0E940913A8EE6A
:10055000B3E0A50194010E94CA2C2B013C01E601E5
:10056000D7FC2196D595C7958E01000F111F000F5E
:10057000111F055011090D2C000CEE08FF08812CED
:10058000912C540184149504A604B704D0F461E0BE
:10059000832D0E94DA12C230D10518F0C8010197EC
:1005A000F1F760E0832D0E94DA12C230D10518F015
:1005B000C8010197F1F7A8958C0C9D1CAE1CBF1CBF
:1005C000E1CFDF91CF911F910F91FF90EF90DF90DE
:1005D000CF90BF90AF909F908F907F906F905F90E3
:1005E0004F903F900895CF93DF93EC0140E050E0AF
:1005F0006EE871E00E94F706CE01DF91CF91089579
:100600004F925F926F927F928F929F92AF92BF9222
:10061000CF92DF92EF92FF920F931F93CF93DF93CE
:100620008C016AE00E94C706C0E0D0E044244394F5
:10063000F9E05F2EA2ED6A2EB6E47B2E8BE9E82E60
:100640008CE8F82E9BE4C92E96E4D92E2BEB822E53
:1006500028E0922E3BEFA32E38E1B32EF8018481DF
:100660009581C817D90708F06DC0808191810097E6
:1006700029F0FC01EC0FFD1F808101C080E0482FB4
:10068000409550E060E070E0762F652F542F4427AE
:10069000480F511D611D711DBA01552744274F6F29
:1006A000109270004092B0005092B1006092B3007E
:1006B0007092B4008091B00080628093B000C70156
:1006C0000197F1F78091B0008F7D8093B000C60153
:1006D0000197F1F780E290E02091B0002062209332
:1006E000B000F40140FF09C03197F1F72091B0004C
:1006F0002F7D2093B000F50108C03197F1F72091CC
:10070000B0002F7D2093B000F4013197F1F776957A
:100710006795579547950197F9F68091B0008062EB
:100720008093B000C4010197F1F78091B0008F7DF4
:100730008093B00064E170E080E090E00E94E013FC
:1007400021968CCFF89482E08093B0008093B10022
:1007500094E69093B3001092B20080937000789466
:100760008093CB02109236038091CA0260E0DF9141
:10077000CF911F910F91FF90EF90DF90CF90BF909E
:10078000AF909F908F907F906F905F904F900C9460
:100790000913EF92FF920F931F93CF93DF938C0176
:1007A00061E0809132040E94DA1260E080913304AB
:1007B0000E94DA12C8E0D0EC60E0809132040E941E
:1007C000DA126D2F6170809133040E94DA1261E0B9
:1007D000809132040E94DA12D695C15069F7E8017F
:1007E000780180E1E80EF11C099118E060E0809149
:1007F00032040E94DA12602F6078809133040E94E4
:10080000DA1261E0809132040E94DA12000F115076
:1008100069F7EC16FD0641F760E0809132040E9412
:10082000DA1260E0809133040E94DA1261E0809174
:1008300032040E94DA1261E080913304DF91CF919B
:100840001F910F91FF90EF900C94DA12CF93DF93EA
:10085000D82F61E0809132040E94DA1260E080912A
:1008600033040E94DA12C8E060E0809132040E94F2
:10087000DA126D2F6170809133040E94DA1261E008
:10088000809132040E94DA12D695C15069F760E077
:10089000809132040E94DA1260E0809133040E9459
:1008A000DA1261E0809132040E94DA1261E08091F4
:1008B0003304DF91CF910C94DA12CF93DF93C3E628
:1008C000D4E060E088850E94DA1260E089850E94A9
:1008D000DA1261E088850E94DA1261E08985DF9191
:1008E000CF910C94DA12CF93DF93D82FC8E060E059
:1008F00080916B040E94DA12D0FF02C061E001C057
:1009000060E080916C040E94DA12D69561E08091DB
:100910006B040E94DA12C15051F760E080916B04C1
:100920000E94DA1261E080916C040E94DA1261E0A8
:1009300080916B040E94DA1260E080916C040E9446
:100940000913C8EC80916C040E94B112892B69F0E4
:10095000C150C1F761E080916C040E94091360E00E
:1009600080916C040E94DA12ECCF61E080916C04FB
:10097000DF91CF910C940913CF93DF93C3E6D4E0BA
:1009800061E088850E94DA1261E089850E94DA12AE
:1009900060E089850E94DA1260E08885DF91CF915E
:1009A0000C94DA12CF92DF92EF92FF920F931F9383
:1009B000CF93DF936C017A018B01C0E0D0E0CE15BC
:1009C000DF0581F0D8016D918D01D601ED91FC918B
:1009D0000190F081E02DC6010995892B11F0219637
:1009E000EECF7E01C701DF91CF911F910F91FF9054
:1009F000EF90DF90CF900895FC01538D448D252F0B
:100A000030E0842F90E0821B930B541710F0CF96A8
:100A1000089501970895FC01918D828D981761F0DA
:100A2000828DDF01A80FB11D5D968C91928D9F5F25
:100A30009F73928F90E008958FEF9FEF0895FC01D0
:100A4000918D828D981731F0828DE80FF11D858D83
:100A500090E008958FEF9FEF0895FC01918D228D16
:100A6000892F90E0805C9F4F821B91098F7399279B
:100A7000089581E292E00E942D0521E0892B09F47E
:100A800020E0822F0895FC01848DDF01A80FB11DA5
:100A9000A35ABF4F2C91848D90E001968F739927B4
:100AA000848FA689B7892C93A089B1898C91837092
:100AB00080648C93938D848D981306C00288F3898B
:100AC000E02D80818F7D80830895EF92FF920F93B8
:100AD0001F93CF93DF93EC0181E0888F9B8D8C8DEA
:100AE000981305C0E889F989808185FD26C0F62E16
:100AF0000B8D10E00F5F1F4F0F731127E02E8C8DB1
:100B0000E8120CC00FB607FCFACFE889F98980819A
:100B100085FFF5CFCE010E944305F1CF8B8DFE01FD
:100B2000E80FF11DE35AFF4FF0829FB7F8940B8F47
:100B3000EA89FB89808180620AC09FB7F894EE89B8
:100B4000FF896083E889F98980818370806480836C
:100B50009FBF81E090E0DF91CF911F910F91FF90B7
:100B6000EF900895CF93DF93EC01888D8823C9F02F
:100B7000EA89FB89808185FD05C0A889B9898C91A6
:100B800086FD0FC00FB607FCF5CF808185FFF2CF41
:100B9000A889B9898C9185FFEDCFCE010E944305CC
:100BA000E7CFDF91CF91089580E090E0892B29F085
:100BB0000E94390581110C940000089585ED809301
:100BC000BC008091BC0084FDFCCF10929806089573
:100BD00040910506262F30E0240F311D21323105CA
:100BE000DCF4209198062430C9F4FC0180E090E008
:100BF000861758F4309105062191DC01AB51BA4FAC
:100C0000A30FB11D2C930196F3CF80910506680FB9
:100C10006093050680E0089581E0089582E00895DC
:100C2000089508950895E0912D0680912E06E81705
:100C300030F4F0E0EE5AF94F808190E008958FEFA4
:100C40009FEF089590912D0680912E06981750F4ED
:100C5000E92FF0E0EE5AF94F208130E09F5F90934A
:100C60002D0602C02FEF3FEFC901089580912E0697
:100C700090E020912D06821B91090895CF92DF927A
:100C8000EF92FF920F931F93CF93DF937C01CB01E1
:100C90008A0120912F06222389F0EB016B01C40EFB
:100CA000D51ECC15DD0569F06991D701ED91FC9158
:100CB0000190F081E02DC7010995F3CF642F0E94C8
:100CC000E805C801DF91CF911F910F91FF90EF9040
:100CD000DF90CF900895CF93DF931F92CDB7DEB70B
:100CE000698320912F062223D1F0209151062032D2
:100CF00040F021E030E0FC013383228380E090E08B
:100D000015C080913006E82FF0E0EF5CF94F998133
:100D100090838F5F809330068093510605C061E019
:100D2000CE0101960E94E80581E090E00F90DF91EE
:100D3000CF910895089580E090E008950E941233C5
:100D40000F931F93CF93DF93EC01888199810097D4
:100D500029F02A813B812617370788F48B016F5FC2
:100D60007F4F0E944C32009761F0998388831B83E8
:100D70000A832C813D81232B11F4FC01108281E038
:100D800001C080E0DF91CF911F910F910895EF9204
:100D9000FF920F931F93CF93DF9300D0CDB7DEB7B1
:100DA0008C0169831A82FC01E480F580FFEFEF1A61
:100DB000FF0AB7010E94A006882381F0F801208174
:100DC000318184819581BE016F5F7F4F820F931FB8
:100DD0000E942D33F801F582E48281E00F900F909C
:100DE000DF91CF911F910F91FF90EF900895EF92B7
:100DF000FF920F931F93CF93DF93EC017B018A0146
:100E0000BA010E94A0062881398181110DC02115E7
:100E1000310519F0C9010E94C331198218821D825F
:100E20001C821B821A8206C01D830C83B701C90174
:100E30000E942D33CE01DF91CF911F910F91FF9032
:100E4000EF900895FC01808191810C94C331FB01E6
:100E5000DC0111961C921E9213961C921E92129700
:100E600015961C921E9214978617970749F0608179
:100E700071816115710521F0448155810C94F7064B
:100E80000895FC011182108213821282158214824D
:100E90006115710551F0FB0101900020E9F73197D0
:100EA000AF01461B570B0C94F70608951F920F9243
:100EB0000FB60F9211242F933F934F935F936F932D
:100EC0007F938F939F93AF93BF93EF93FF9381E2B1
:100ED00092E00E944305FF91EF91BF91AF919F91E6
:100EE0008F917F916F915F914F913F912F910F90D3
:100EF0000FBE0F901F9018951F920F920FB60F9272
:100F000011242F938F939F93EF93FF93E0913102DE
:100F1000F09132028081E0913702F091380282FD37
:100F200012C0908180913A028F5F8F7320913B02B3
:100F3000821751F0E0913A02F0E0EF5DFD4F958F9E
:100F400080933A0201C08081FF91EF919F918F9130
:100F50002F910F900FBE0F901F901895CF92DF9298
:100F6000EF92FF92CF93DF93EC01603282E078073B
:100F7000D4F577FD06C0653B71052CF064EB70E09D
:100F800002C060E070E08A81998128E830E0690160
:100F9000C91AD10897FDD394CC0CDD1CCC0CDD1CF8
:100FA0000D2C000CEE08FF082EE239E094E08902D7
:100FB000201931091124C901330FAA0BBB0B9C0165
:100FC000AD012C193D094E095F09DB010E94D52CAA
:100FD00024EB30E040E050E00E94AB2CC20ED31E68
:100FE000E41EF51EB60138813C3068F5298188E899
:100FF00090E0821B910927FD9395880F991F880F18
:10100000991F681779076CF08A814EE259E094E0E5
:101010008902401951091124CB01461757070CF4D6
:10102000CA010297880F991F4FB7F894232F30E019
:10103000F901EE0FFF1F2E0F3F1FF901E95CFC4F76
:10104000928381834FBFDF91CF91FF90EF90DF902C
:10105000CF9008951F93CF93DF93EC01162F8881D3
:101060008C3008F04EC061E0812F0E940913888106
:10107000E82FF0E09F01220F331FE20FF31FE95C1E
:10108000FC4F1F7790819078192B108319821A8258
:101090006CE00E94F1309CE0899FB001112440E097
:1010A00050E09B01240F351FF901EE0FFF1F2E0F9B
:1010B0003F1FF901E95CFC4F908197FD16C04F5F1F
:1010C0005F4F4C30510569F781110FC010928000BD
:1010D00082E0809381001092850010928400B19A82
:1010E00080916F00826080936F00E881F0E0CF0113
:1010F000880F991FE80FF91FE95CFC4F8081806819
:1011000080838881DF91CF911F9108951F920F9264
:101110000FB60F9211242F933F934F935F936F93CA
:101120007F938F939F93AF93BF93EF93FF938091A0
:10113000280687FF05C010928500109284001BC00E
:1011400020912806022E000C330B80915B0390E067
:101150002817390784F480912806082E000C990B73
:10116000FC01EE0FFF1F8E0F9F1FFC01E95CFC4F7F
:10117000808187FD15C0809128068F5F80932806A7
:1011800020912806022E000C330B80915B0390E027
:1011900028173907C4F4809128068C3064F113C0F5
:1011A00080912806082E000C990BFC01EE0FFF1F02
:1011B0008E0F9F1FFC01E95CFC4F808160E08F7700
:1011C0000E94DA12D8CF8091840090918500049615
:1011D00080349C4918F480E49CE905C08091840027
:1011E00090918500049690938900809388008FEFFA
:1011F000809328063BC02091840030918500809127
:101200002806082E000C990BFC01EE0FFF1F8E0F15
:101210009F1FFC01E95CFC4F81819281820F931F2B
:10122000909389008093880080912806082E000CF6
:10123000990BFC01EE0FFF1F8E0F9F1FFC01E95C55
:10124000FC4F808187FF12C080912806082E000C79
:10125000990BFC01EE0FFF1F8E0F9F1FFC01E95C35
:10126000FC4F808161E08F770E94DA12FF91EF914D
:10127000BF91AF919F918F917F916F915F914F91AE
:101280003F912F910F900FBE0F901F901895DC018A
:10129000E62FF0E0EE0FFF1FE65CFE4F80818C939F
:1012A000818111968C93119712966C930895CF9328
:1012B000DF93EC0160E089810E9409138981DF914D
:1012C000CF910C94A413CF93DF93EC0160E088815D
:1012D0000E9409138881DF91CF910C94A4131F936E
:1012E000CF93DF93EC01162F61E089810E940913EF
:1012F000612F8981DF91CF911F910C94DA12CF93E6
:10130000DF93EC0188810E94091388810E94B11249
:1013100021E0892B09F420E0822FDF91CF910895FD
:101320001F920F920FB60F9211240F931F932F93BA
:101330003F934F935F936F937F938F939F93AF935D
:10134000BF93CF93EF93FF9382E00E94B112C82F17
:101350008091D0029091D10201969093D102809316
:10136000D00280913603843618F085E08093CB025A
:101370008091CB02833079F018F4823039F072C05A
:10138000843011F1853009F44AC06CC0C1116AC0C3
:101390001092360329C0C13009F064C0E0913603D1
:1013A00081E08E0F80933603F0E08091D00290911F
:1013B000D102E653FD4F80871092D1021092D002E5
:1013C00084E08093CB024EC0C11114C0E09136037B
:1013D00081E08E0F80933603F0E08091D0029091EF
:1013E000D102E653FD4F80871092D1021092D002B5
:1013F00083E0E7CF8091D0029091D10285369105AC
:1014000088F185E08093CB020E941A146093CC028D
:101410007093CD028093CE029093CF0223C00E949E
:101420001A140091CC021091CD022091CE0230917D
:10143000CF02DC01CB01801B910BA20BB30B893CCB
:101440009105A105B10540F0109236031092D1022A
:101450001092D00282E0B5CFC11104C01092D10227
:101460001092D002FF91EF91CF91BF91AF919F91D8
:101470008F917F916F915F914F913F912F911F912C
:101480000F910F900FBE0F901F9018951F920F9203
:101490000FB60F9211242F933F934F935F936F9347
:1014A0007F938F939F93AF93BF93EF93FF9380911D
:1014B000B900887F803609F49CC068F5883209F449
:1014C0005BC090F4803109F454C038F4882309F4E7
:1014D000F6C0883009F44DC0F6C0883109F44CC01C
:1014E000803209F45DC0EFC0803409F468C048F46C
:1014F000803309F455C0883309F0E5C0809396061F
:10150000D8C0803509F44FC0883509F45DC08834EF
:1015100009F0D9C0D6C0883909F4C7C0A8F4883703
:1015200009F467C038F4883609F463C0803709F4D9
:1015300060C0C9C0883809F4B8C0803909F45FC0F8
:10154000803809F0C0C05BC0803B09F486C038F425
:10155000803A09F466C0883A09F47FC0B4C0803C80
:1015600009F4A7C0883C09F4A4C0883B09F48AC0E8
:10157000AAC08091930610C0909195068091940620
:10158000981770F5E091950681E08E0F809395068F
:10159000F0E0EE58F94F80818093BB0085EC86C067
:1015A000809396068EC0E091950681E08E0F809321
:1015B00095068091BB00F0E0EE58F94F8083909142
:1015C0009506809194066EC0E091950681E08E0F9D
:1015D000809395068091BB00F0E0EE58F94F808330
:1015E0008091970681116DC081E08093920684EA14
:1015F00061C083E08093980610922706CFCF809138
:101600002706803208F051C0E091270681E08E0F56
:10161000809327068091BB00F0E0E95FF94F80835B
:10162000BDCF85EC8093BC00109298068091270670
:10163000803230F4E0912706F0E0E95FF94F108244
:101640006091270670E0E0912906F0912A0687E074
:1016500096E009951092270636C084E0809398069C
:101660001092060610920506E0912B06F0912C06CA
:10167000099580910506811105C081E080930506DA
:101680001092E505E091060681E08E0F8093060634
:10169000F0E0EB51FA4F80818093BB0090910606F9
:1016A00080910506981708F479CF85E88093BC00EF
:1016B0000AC085EC8093BC001092980604C010927A
:1016C00096060E94DE05FF91EF91BF91AF919F9129
:1016D0008F917F916F915F914F913F912F910F90DB
:1016E0000FBE0F901F901895E3EEF5E0DC01AC56AD
:1016F000BE4F8C91808311968C9181838091E305FC
:101700009091E4050895682F81E292E00C946505BC
:10171000CF92DF92EF92FF92CF93DF936B017C0128
:1017200083E00E94830BC701B6010E94962E862F8C
:10173000262F372F3093E4052093E305C3EED5E041
:101740000E94830B89810E94830B8A810E94830BF4
:101750008B81DF91CF91FF90EF90DF90CF900C9431
:10176000830BEF92FF920F931F93CF93DF93162F6C
:10177000E72EF82E092F82E00E94830BC0E9D1E00A
:10178000812F9E2DAF2DB02F88839983AA83BB8391
:101790000E94830B89810E94830B8A810E94830BA4
:1017A0008B81DF91CF911F910F91FF90EF900C945F
:1017B000830BCF93C82F81E00E94830B8C2FCF9196
:1017C0000C94830B8FEF0E94830B85E50E94830BA3
:1017D0000C947B028FEF0E94830B85E50C94830BA6
:1017E000909198069111FCCF91E090939806909378
:1017F00097062FEF2093960610929506260F2093BA
:1018000094069093930690919306880F892B80936A
:10181000930680919206813061F410929206809135
:1018200093068093BB008091BC0083FDF8CF85ECCC
:1018300001C085EE8093BC00809198068130E1F371
:1018400080919506861710F460919506A2E7B6E0A0
:10185000E2E5F6E080E0861721F09D9191938F5F9D
:10186000FACF0895282F30915106313208F04AC03E
:10187000809198068111FCCF9091990642E04093A7
:101880009806209397062FEF2093960610929506C0
:1018900030939406E1E3F6E0A2E7B6E020E03217E9
:1018A00021F041914D932F5FFACF10929306209132
:1018B0009306990F922B90939306909192069130F4
:1018C00061F410929206909193069093BB009091D0
:1018D000BC0093FDF8CF95EC01C095EE9093BC0051
:1018E000909198069230E1F3909196069F3F79F09F
:1018F00080919606803241F080919606803331F0D7
:1019000084E005C081E003C082E001C083E0109262
:1019100030061092510610922F060895EF92FF9212
:101920000F931F93CF93DF9300D000D0CDB7DEB7D6
:101930008E010F5F1F4F7E0125E0E20EF11CF801C2
:10194000DC012D91CD012193EE15FF05C9F7D801DA
:1019500080E29C91923208F08C93EC91F0E0E45C90
:10196000FB4FE491ED93AE15BF0599F70E94BC04BF
:1019700080E40E9473040E945D040E94BC04809174
:1019800068040E947304F80181918F010E9473041E
:101990000E151F05C1F70E945D040E94BC048091D2
:1019A00069040E9473040F900F900F900F90DF91C5
:1019B000CF911F910F91FF90EF900C945D040F93C6
:1019C0001F93CF93DF9380917F0490918004EC016B
:1019D000CC0FDD1FC80FD91F009181041091820424
:1019E000AE01B80180918304909184040E94173362
:1019F000892B09F43BC0A0918504B0918604209105
:101A000089043FB7F8948C91922F90959823822B5C
:101A1000F801CE0FDF1FEC17FD0781F0219148E0A0
:101A20008C9300C027FF9C93220F00C000C000C011
:101A300008F49C9300C04A9599F7EDCF3FBF4091C1
:101A40007F0450918004CA01880F991F480F591FC5
:101A50006091810470918204809183049091840448
:101A60000E9424338BEC97E00197F1F7DF91CF913F
:101A70001F910F91089590E0E0E0F0E020917F0445
:101A800030918004E217F30708F5DF01BB27A217A6
:101A9000B307C8F4292F30E0A0918104B0918204EB
:101AA000A20FB31F6C93A0918104B0918204A20F86
:101AB000B31F11968C93A0918104B0918204A20F60
:101AC000B31F12964C9331969D5FD8CF81E0089555
:101AD000CF93DF938F3F910519F014F08FEF90E0D3
:101AE000EC01C1308FEFD80714F4C1E0DFEF809133
:101AF000A3049091A404C817D90721F1D093A4049A
:101B0000C093A304D7FD0BC061E08DE994E00E946F
:101B10006F098FE090E00197F1F7BE010DC060E022
:101B20008DE994E00E946F098FE090E00197F1F752
:101B3000662777276C1B7D0B80919D04DF91CF91E9
:101B40000C944513DF91CF910895EF92FF920F937C
:101B50001F93CF93DF93F62ED72FC42F90910504B8
:101B600021E020932F069093990610923006109250
:101B70005106682F8EEB92E00E946B06813001F5D2
:101B800080E00E94320C81112FC06C2FC13208F00E
:101B900060E2809105040E94F00B10922D06809364
:101BA0002E060F2D1D2FE12CF12CD0E090912E064A
:101BB00080912D06981731F0EC16FD0654F002C006
:101BC0008FEF12C081E0CE15DF0509F480E081952A
:101BD0000BC08FEFE81AF80A8EEB92E00E94220603
:101BE000F80181938F01E2CFDF91CF911F910F9187
:101BF000FF90EF900895CF93DF93EB019091050450
:101C000021E020932F0690939906109230061092AF
:101C10005106682F8EEB92E00E946B06813061F4D2
:101C200041E050E0BE018EEB92E00E943E0681E072
:101C3000DF91CF910C94320C8FEFDF91CF9108950B
:101C400010922D0610922E06109230061092510618
:101C50001092980681E0809397061092920661E0B8
:101C600082E10E94DA1261E083E10E94DA12E9EB7C
:101C7000F0E080818E7F808380818D7F808388E407
:101C80008093B80085E48093BC0080E196E0909357
:101C90002C0680932B0681E196E090932A06809390
:101CA00029060895F89482E08093B0008093B100F3
:101CB00094E69093B3001092B200809370007894F1
:101CC000109236038093CB020895EF92FF920F9308
:101CD0001F93CF93DF938C01FC01C481EC2EF58020
:101CE00084E00E94830B8C2F0E94830BC0E0D0E025
:101CF000CE15DF05A4F4F80184819581C817D907B2
:101D000048F480819181009729F0FC01EC0FFD1FC0
:101D1000808101C080E00E94830B2196E9CFDF9192
:101D2000CF911F910F91FF90EF900895CF93DF9384
:101D3000EC0160E089810E94091389810E94B1123F
:101D400021E0892B09F420E0822FDF91CF910895C3
:101D5000CF93DF93EB019091A30321E020932F0613
:101D6000909399061092300610925106682F8EEBD0
:101D700092E00E946B06813061F441E050E0BE01C8
:101D80008EEB92E00E943E0681E0DF91CF910C94B1
:101D9000320C8FEFDF91CF910895EF92FF920F9366
:101DA0001F93CF93DF93F62ED72FC42F9091A303C9
:101DB00021E020932F0690939906109230061092FE
:101DC0005106682F8EEB92E00E946B06813001F580
:101DD00080E00E94320C81112FC06C2FC13208F0BC
:101DE00060E28091A3030E94F00B10922D06809375
:101DF0002E060F2D1D2FE12CF12CD0E090912E06F8
:101E000080912D06981731F0EC16FD0654F002C0B3
:101E10008FEF12C081E0CE15DF0509F480E08195D7
:101E20000BC08FEFE81AF80A8EEB92E00E942206B0
:101E3000F80181938F01E2CFDF91CF911F910F9134
:101E4000FF90EF9008952F923F924F925F926F9282
:101E50007F928F929F92AF92BF92CF92DF92EF923A
:101E6000FF920F931F93CF93DF93CDB7DEB7A69763
:101E70000FB6F894DEBF0FBECDBF62E088E993E0F5
:101E80000E947F09811131C26AE070E080E090E039
:101E90000E94E01362E088E993E00E947F098111CB
:101EA00024C243E06DE973E08AE00E94CD0E811107
:101EB0001CC280919D03883409F017C280919E0353
:101EC000843309F012C280919F03833309F00DC25D
:101ED0000E941A146B017C01712C11E062E088E908
:101EE00093E00E947F09811119C00E941A14DC013D
:101EF000CB018C199D09AE09BF09893C9105A1054B
:101F0000B10560F3A8950E941A146B017C0171263B
:101F1000672D88E993E00E946F09E0CF64E670E0E6
:101F200080E090E00E94E0130E941A144B015C01D3
:101F30002FEF3FE73C872B8740E050E85E874D87D7
:101F40008FEF9FE798878F83A0E0B0E8BA87A987D3
:101F500022242A949FE7392E00E010E86624639437
:101F60000E941A14DC01CB018C199D09AE09BF092E
:101F7000893C9105A105B10558F0A8950E941A1455
:101F80006B017C017624672D88E993E00E946F093C
:101F90000E941A14DC01CB0188199909AA09BB090E
:101FA0000B97A105B105C0F1A895AE014F5F5F4F3A
:101FB000BE016D5F7F4FCE0105960E94B7118D81E6
:101FC0009E81821593052CF0081719071CF48C01CB
:101FD00001C01C018B819C81EF81F8858E179F07C2
:101FE00044F029853A85281739072CF49A87898780
:101FF00002C098878F8389819A814B855C8584177D
:10200000950744F0AD85BE85A817B9072CF49E87C7
:102010008D8702C09C878B8762E088E993E00E94ED
:102020007F0981119DCF60E088E993E00E946F09EC
:10203000B801012E000C880B990B0E94782B4B01E4
:102040005C01B101032C000C880B990B0E94782BCA
:102050006F87788B898B9A8B9B01AC01C501B4018A
:102060000E94462D905820E030E040E05FE30E945F
:10207000D72B6B8B7C8B8D8B9E8B6093A503709382
:10208000A6038093A7039093A803E985FA85BF016F
:10209000FF0F880B990B0E94782B6B017C012F811D
:1020A0003885B901330F880B990B0E94782B6F8B01
:1020B000788F898F9A8F9B01AC01C701B6010E946E
:1020C000462D905820E030E040E05FE30E94D72B9F
:1020D0006B8F7C8F8D8F9E8F6093A9037093AA0363
:1020E0008093AB039093AC034D855E85BA01550F89
:1020F000880B990B0E94782B2B013C01AB85BC858A
:10210000BD01BB0F880B990B0E94782B6F8F78A3B2
:1021100089A39AA39B01AC01C301B2010E94462D81
:10212000905820E030E040E05FE30E94D72B6BA3A3
:102130007CA38DA39EA36093AD037093AE038093A5
:10214000AF039093B00380E090E0A0E8BFE38093FA
:10215000B1039093B203A093B303B093B4032F855C
:10216000388949895A89C501B4010E94452D4B011E
:102170005C012F89388D498D5A8DC701B6010E94A7
:10218000452DA50194010E94242E6B017C016093D2
:10219000B5037093B6038093B7039093B8032F8D64
:1021A00038A149A15AA1C301B2010E94452DA50140
:1021B00094010E94242E4B015C016093B90370933B
:1021C000BA038093BB039093BC030219130917FF52
:1021D00003C011950195110989859A85EF81F885CC
:1021E0008E1B9F0B97FF03C09195819591092D85BB
:1021F0003E854B855C85241B350B37FF03C031952D
:10220000219531098017910744F02017310714F008
:1022100081E009C0081719072CF02817390714F0B6
:1022200082E001C083E08093BD032B8D3C8D4D8DFA
:102230005E8D6B897C898D899E890E94462D2BA19C
:102240003CA14DA15EA10E94462D20E030E040E877
:102250005FE30E94462DA70196010E94462DA5012D
:1022600094010E94462D6B017C016091BD0370E0DA
:1022700080E090E00E94782B9B01AC01C701B60181
:102280000E94462D20E030E04AE253E40E94462DB1
:102290000E949D2E6093BE0385EAE82E83E0F82E0F
:1022A00000E010E0D7016D917D01C8010E949D2CD6
:1022B0000F5F1F4F0A311105A9F781E080939C033E
:1022C00061E088E993E00E946F0962E088E993E0A9
:1022D0000E947F09811102C0A895F7CFA89564E6F6
:1022E00070E080E090E00E94E013A6960FB6F894AC
:1022F000DEBF0FBECDBFDF91CF911F910F91FF9039
:10230000EF90DF90CF90BF90AF909F908F907F9095
:102310006F905F904F903F902F900895833081F0A1
:1023200028F4813099F08230A1F008958730A9F027
:102330008830B9F08430D1F4809180008F7D03C063
:10234000809180008F7780938000089584B58F7787
:1023500002C084B58F7D84BD08958091B0008F77D1
:1023600003C08091B0008F7D8093B0000895CF921C
:10237000DF92EF92FF920F931F93CF93DF931F9201
:10238000CDB7DEB76C017B018A010E94230F46E0C6
:102390006DE973E083E00E94CD0E882321F0082EC2
:1023A000000C990B2BC08091A403813039F48983F0
:1023B000BE016F5F7F4F82E00E94A80E80919D0357
:1023C00090919E03982789279827F601918380830F
:1023D0008091A1039091A203982789279827F7015C
:1023E0009183808380919F039091A00398278927F0
:1023F0009827F8019183808380E090E00F90DF912F
:10240000CF911F910F91FF90EF90DF90CF900895A3
:10241000CF92DF92EF92FF920F931F93CF93DF93B0
:1024200028E030E041E06FEF70E09FE0C92ED12C52
:10243000C3E2D0E007ED10E090918E04E0918F04AC
:10244000F0919004592F5095F82EF42281F0F894D1
:10245000F2805F2152835181592B5183DE01119704
:10246000F1F75281952B92837894F8010FC0F8947C
:10247000F2805F2152835181592B5183DB011197E7
:10248000F1F75281952B92837894F6013197F1F709
:10249000440F2150310981F6F894E0918F04F091B6
:1024A0009004918180918E04809589238183E091AD
:1024B0008F04F0919004928180918E04892B828305
:1024C000E0918F04F0919004928180918E04809528
:1024D000892382837894DF91CF911F910F91FF9090
:1024E000EF90DF90CF90089590918E04E0918F044B
:1024F000F0919004F8948181292F20958223818383
:102500008281892B828378948DE743E050E081506B
:1025100039F1DA011197F1F730813923C1F3F894D9
:102520008281822382838181892B81837894ABE7A6
:10253000B7E01197F1F7F8948181282321838281F4
:10254000892B8283A3E1B1E01197F1F78081982371
:1025500081E009F080E07894E3E6F6E03197F1F766
:102560000895CF93DF93282F30E0F901EE58FB4F09
:102570008491F901E85DFB4FD491F901EC5EFB4FCA
:10258000C491CC2391F081110E948E11EC2FF0E0C8
:10259000EE0FFF1FE859FB4FA591B491EC91ED238D
:1025A00081E090E021F480E002C080E090E0DF91E3
:1025B000CF9108951F93CF93DF93282F30E0F90137
:1025C000EE58FB4F8491F901E85DFB4FD491F9017E
:1025D000EC5EFB4FC491CC23C1F0162F81110E94F9
:1025E0008E11EC2FF0E0EE0FFF1FE65FFB4FA59181
:1025F000B4919FB7F894111104C08C91D095D82351
:1026000002C0EC91DE2BDC939FBFDF91CF911F9135
:102610000895CF93DF9390E0FC01E85DFB4F249198
:10262000FC01EC5EFB4F8491882361F190E0880F00
:10263000991FFC01E25AFB4FC591D491FC01E65F62
:10264000FB4FA591B491611109C09FB7F89488819F
:10265000209582238883EC912E230BC0623061F495
:102660009FB7F8948881322F309583238883EC912B
:102670002E2B2C939FBF06C08FB7F894E8812E2B8A
:1026800028838FBFDF91CF9108951F93CF93DF935E
:10269000182FEB0161E00E940913209711F460E00C
:1026A00004C0CF3FD10539F461E0812FDF91CF9194
:1026B0001F910C94DA12E12FF0E0EE58FB4FE491F9
:1026C000E330F9F048F4E130B9F0E230A1F584B537
:1026D000806284BDC8BD34C0E730E9F0E83019F14C
:1026E000E43049F580918000806280938000D0932F
:1026F0008B00C0938A0024C084B5806884BDC7BDA8
:102700001FC080918000806880938000D0938900F2
:10271000C093880015C08091B00080688093B0009D
:10272000C093B3000DC08091B00080628093B00070
:10273000C093B40005C0C038D1050CF0B5CFAFCF01
:10274000DF91CF911F9108958E3008F08E508770E1
:10275000806480937C0080917A00806480937A000A
:1027600080917A0086FDFCCF8091780020917900DD
:1027700090E0922B08953FB7F89480919F06909136
:10278000A006A091A106B091A20626B5A89B05C0FF
:102790002F3F19F00196A11DB11D3FBFBA2FA92FE0
:1027A000982F8827820F911DA11DB11DBC01CD015D
:1027B00042E0660F771F881F991F4A95D1F7089549
:1027C0008F929F92AF92BF92CF92DF92EF92FF9241
:1027D0006B017C010E94BB134B015C01C114D1044D
:1027E000E104F104F1F00E94BB13DC01CB01881974
:1027F0009909AA09BB09883E9340A105B10570F368
:1028000021E0C21AD108E108F10888EE880E83E0C1
:10281000981EA11CB11CC114D104E104F10419F7E4
:10282000DDCFFF90EF90DF90CF90BF90AF909F9063
:102830008F9008952FB7F89460919B0670919C0635
:1028400080919D0690919E062FBF08951F920F9232
:102850000FB60F9211242F933F938F939F93AF93B3
:10286000BF9380919B0690919C06A0919D06B0918C
:102870009E0630919A0623E0230F2D3720F401960F
:10288000A11DB11D05C026E8230F0296A11DB11D93
:1028900020939A0680939B0690939C06A0939D0696
:1028A000B0939E0680919F069091A006A091A106EC
:1028B000B091A2060196A11DB11D80939F06909331
:1028C000A006A093A106B093A206BF91AF919F91DD
:1028D0008F913F912F910F900FBE0F901F901895E1
:1028E000CF92DF92EF92FF920F931F93E82FF92F71
:1028F00005C0015011092109310961F19081962328
:102900009417B9F305C0015011092109310911F1DA
:10291000908196239413F7CFC12CD12CE12CF12C6C
:102920000AC08FEFC81AD80AE80AF80A0C151D0564
:102930002E053F0579F080818623841791F36C2D55
:102940007D2D8E2D9F2D1F910F91FF90EF90DF9089
:10295000CF90089560E070E080E090E01F910F91CB
:10296000FF90EF90DF90CF900895CF93DF93CDB796
:10297000DEB7C454D1090FB6F894DEBF0FBECDBF89
:10298000789484B5826084BD84B5816084BD85B54A
:10299000826085BD85B5816085BD80916E00816056
:1029A00080936E00109281008091810082608093FC
:1029B00081008091810081608093810080918000FE
:1029C0008160809380008091B10084608093B10029
:1029D0008091B00081608093B00080917A00846023
:1029E00080937A0080917A00826080937A0080914F
:1029F0007A00816080937A0080917A008068809369
:102A00007A001092C10061E08DE00E94091361E03C
:102A10008DE00E94DA126CE271E080E090E00E94AA
:102A2000E01360E08DE00E94DA12E0913102F09153
:102A3000320282E08083E0912D02F0912E0210821A
:102A4000E0912F02F091300280E1808310923902F0
:102A5000E0913502F091360286E08083E091330206
:102A6000F0913402808180618083E0913302F091A3
:102A70003402808188608083E0913302F0913402D7
:102A8000808180688083E0913302F09134028081FC
:102A90008F7D808364EF71E080E090E00E94E0131E
:102AA00042E350E060E070E084EF91E00E94830236
:102AB00062E370E080E090E00E94E0130E946F0209
:102AC0000E94520E40E060E080E00E943B0D20E05A
:102AD00040E050E0A2E031E080917F0490918004DA
:102AE00048175907E0F4822F90E0E0918304F091B9
:102AF0008404E80FF91FA083E0918304F09184041B
:102B0000E80FF91F11826091830470918404FB0126
:102B1000E80FF91F32834F5F5F4F2D5FDDCFE5E395
:102B2000F4E0E491E0938904E1E2F4E0E491F0E080
:102B3000EE0FFF1FE65FFB4F859194919093860403
:102B40008093850461E08DE00E94091310927D045A
:102B500082E080937E0440E060E080E00E943B0DD4
:102B60000E94DF0C80E090E0A3E8B2E48093C90308
:102B70009093CA03A093CB03B093CC031092CD03E0
:102B80001092CE031092CF031092D0031092D10373
:102B90001092D2031092D3031092D4031092D50353
:102BA0001092D6031092D7031092D8031092D90333
:102BB0001092DA031092DB031092DC031092DD0313
:102BC0001092DE031092DF031092E0031092E103F3
:102BD0001092E2031092E3031092E4031092E603D2
:102BE0001092E5031092E8031092E7031092EA03B3
:102BF0001092E9031092EB031092EC031092ED0394
:102C00001092EE031092EF031092F0031092F10372
:102C10001092F2031092F3031092F4031092F50352
:102C20001092F6030E94200E68EC70E080E090E0C5
:102C30000E94E0131EA2BE016A5D7F4F8BE60E94D8
:102C4000FB0D64E670E080E090E00E94E01381E01C
:102C50008FA3BE01695D7F4F8AE10E94FB0D88E072
:102C600088A7BE01685D7F4F8BE10E94FB0D64E683
:102C700070E080E090E00E94E01304EF11E019A6FC
:102C80001AA61BA61CA6812C912C5401412C512C58
:102C9000320146E067EF73E083E40E94A50D809166
:102CA000F7039091F803982789279827092E000C9D
:102CB000AA0BBB0B480E591E6A1E7B1E8091F9039E
:102CC0009091FA03982789279827092E000CAA0BC0
:102CD000BB0B880E991EAA1EBB1E8091FB03909110
:102CE000FC03982789279827092E000CAA0BBB0BF9
:102CF00029A53AA54BA55CA5280F391F4A1F5B1FC4
:102D000029A73AA74BA75CA70150110909F0C1CF29
:102D100004EFC02EDD24D394E12CF12CC301B201C9
:102D2000A70196010E94AB2CCA01B9010E94782B21
:102D30006093EB037093EC038093ED039093EE03A9
:102D4000C501B401A70196010E94AB2CCA01B901CB
:102D50000E94782B6093EF037093F0038093F1034C
:102D60009093F20369A57AA58BA59CA5A70196016E
:102D70000E94AB2CCA01B9010E94782B6093F30327
:102D80007093F4038093F5039093F60349E050E0C9
:102D90006CE571E081E292E00E94D204409166030A
:102DA00050916703609162037091630381E292E046
:102DB0000E94D2040E947B028DE80E94260481E0DA
:102DC00080933404409106015091070160910801FD
:102DD0007091090121964CAF5DAF6EAF7FAF219727
:102DE00060910A0170910B0180910C0190910D018D
:102DF00025966CAF7DAF8EAF9FAF259783E2282ECF
:102E0000312CEEE8F1E0149160E0812F0E9409136B
:102E1000812F0E94A41311E00B970CF010E0809119
:102E2000D201181761F01093D2010E94EA0B80E8DA
:102E30000E94830B812F0E94D90B0E947B0200917C
:102E40007C0310917D030E941A14C0906C03D090F3
:102E50006D03E0906E03F0906F039B01AC012C19A1
:102E60003D094E095F0969017A0139E0C316D104B1
:102E7000E104F10408F45CC060936C0370936D038B
:102E800080936E0390936F0388E693E00E94570946
:102E900040917003509171036091720370917303BC
:102EA000452B462B472B69F4AC01092E000C660B11
:102EB000770B409378035093790360937A03709370
:102EC0007B03409178035091790360917A0370916C
:102ED0007B03841B950B97FF03C091958195910906
:102EE00044979CF48091740390917503A0917603AC
:102EF000B09177030196A11DB11D80937403909347
:102F00007503A0937603B09377038091700390913B
:102F10007103A0917203B09173030196A11DB11DBD
:102F20008093700390937103A0937203B093730323
:102F30008091700390917103A0917203B09173031B
:102F40000597A105B10571F51092700310927103F8
:102F50001092720310927303809174039091750321
:102F6000A0917603B09177030397A105B10570F0A6
:102F70008091780390917903A0917A03B0917B03BB
:102F80008C0190937D0380937C0304C000917C03AB
:102F900010917D03109274031092750310927603C2
:102FA00010927703C80164E670E00E941131683026
:102FB000710528F4FB01E25FFE4F808101C080E0D3
:102FC000809320020E941A140E94762B20E030E0A9
:102FD0004AE754E40E94242E20911C0230911D02E5
:102FE00040911E0250911F020E94452D60931802CD
:102FF0007093190280931A0290931B0282ED92E063
:1030000090930D0480930C048091360390E090938C
:103010000F0480930E042091CB02253009F056C096
:103020002091D20226582D3540F48330910541F489
:103030008091D30281528931C0F00E94520E46C065
:1030400083349105D4F38091D30283548F32A8F74F
:1030500080E090E0DC0122E030E0F901EE52FD4F2B
:1030600040814850473050F0E8CF8091D4028850DA
:10307000873018F710920B040C944929F901ED528E
:10308000FD4F408147514331B8F4B695A7959795C8
:103090008795B0682E5F3F4F22343105F1F620E26C
:1030A00020930B048093070490930804A0930904D1
:1030B000B0930A040C94492940814850473008F0E5
:1030C000BCCFB695A79597958795E4CF80910E02D2
:1030D00090910F02019690930F0280930E0220911F
:1030E000170212164CF48938934134F010921702EB
:1030F00010920F0210920E0210920D0281E292E0E5
:103100000E942D05181619064CF481E080930D02DB
:1031100081E292E00E940B0580930C0280910D02E7
:10312000882311F40C94DF2880910C0290910B02FB
:10313000853561F491110AC080910A028F3FE1F454
:1031400081E08093090280930B0216C080930A02EB
:10315000992391F0E0910902E23019F4809308027A
:1031600007C0E33028F09091080291509093080234
:10317000F0E0EC56FE4F8083809109028F5F84332C
:1031800018F48093090204C01092090210920B02F5
:1031900080910B02882311F40C94DF28D090080250
:1031A000D1100C94DF2880910902843010F40C9423
:1031B000DF2810920B021091970110930702F090F4
:1031C000990180919801823011F40C940E2124F41D
:1031D000813061F00C94DD28843011F40C94BD280A
:1031E000853011F40C94DB280C94DD2851E0F516A1
:1031F00029F00E94EA0B812F0E94830B10919A0103
:10320000812F90E04F2DFF0C550B660B770B44334D
:10321000510510F00C940A21FA01EC5CFF4F0C945C
:10322000253120916F0430E08217930729F0612F38
:103230008DE694E00E9447090E941A1400917304DD
:10324000109174042091750430917604DC01CB0157
:10325000801B910BA20BB30B4897A105B10518F089
:1032600081E08093720480917204882309F45FC026
:103270000E941A146093730470937404809375040D
:10328000909376041092720460E08DE694E00E94C0
:103290006F0983E090E00197F1F761E08DE694E03B
:1032A0000E946F09C1010197F1F760E08DE694E09B
:1032B0000E946F0960E080916E040E940913809162
:1032C0006E0490E0FC01E85DFB4F6491FC01EC5E54
:1032D000FB4FE491F0E0EE0FFF1FE859FB4F8591A3
:1032E000949108EB16E520E030E0462F0E94701420
:1032F000611571058105910551F06B017C01AFEFFE
:10330000CA1ADA0AEA0AFA0ABFE0FB2203C0C12C91
:10331000D12C7601C701B6010E94782B6093770407
:10332000709378048093790490937A040CC0609130
:103330007704709178048091790490917A040E94C6
:10334000962E6B017C01C114D104E104F10431F427
:10335000B0EACB2EBAE5DB2EE12CF12C0E94EA0B71
:10336000809107020E94830BC701B6010E94782B4F
:1033700020E030E048E652E43FC320919B014091B9
:103380008C0450E08417950741F4622F70E040915F
:103390008D0450E06417750751F1880F991FFC01E7
:1033A000E65CFE4F908190938A04818180938B0428
:1033B00010938C0420938D04223011F40C94E32894
:1033C000892F90E0FC01E85DFB4FE491E0938E04CF
:1033D000FC01EC5EFB4FE491F0E0EE0FFF1FE859BB
:1033E000FB4F859194919093900480938F040E9459
:1033F00074128CEC0E94081284E40E9408120E944D
:103400001A146B017C0190918E04E0918F04F0916D
:1034100090048181292F2095822381838281892BA9
:103420008283D1011197F1F78081892311F40C94E3
:10343000E6280E9474128CEC0E9408128EEB0E9407
:103440000812DE011196AE014A5F5F4F6FEC70E02B
:10345000E8E0CE2ED12C00E0FF24F39410918E04EE
:10346000E0918F04F0919004F8942181212B218325
:103470002281E12EE0942E21228327E030E0C90151
:103480000197F1F72181E222E1822281212B22831F
:10349000C1010197F1F720817894FB013197F1F791
:1034A000122309F00F29FF0C91E0C91AD108B1F6D7
:1034B0000D934A175B0761F669817A81072E000C2C
:1034C000880B990B0E94782B20E030E040E85DE308
:1034D0000E94D72B78C62091610430E082179307B1
:1034E00051F0612F8FE594E00E94470960E08091E0
:1034F00060040E9409138FE594E00E94570954C6A6
:1035000000919B012091C10330E08217930729F0BD
:10351000612F8FEB93E00E944709013059F48FEB44
:1035200093E00E9463092091C8013091C9018A5E2D
:1035300091400CC0023071F48FEB93E00E94570968
:103540008A5E91402091CA013091CB01BC01620F8B
:10355000731F8FC060E070E08CC0809110028823E0
:1035600009F458C66CE573E0CE0101960E94270766
:10357000CE0101960E94650ECE0101960E9422079F
:10358000109210028CE593E00E94F30243C6109162
:103590009B010E941A140E94762B20E030E04AE73B
:1035A00054E40E94242E2091130230911402409181
:1035B0001502509116020E94452D2DEC3CEC4CE476
:1035C0005EE30E944B2F18165CF040911702042E08
:1035D000000C550B212F30E081E04217530709F012
:1035E00080E00E94D90B06C0809117020E94D90B7F
:1035F0001092170210921202109211020BC6209123
:10360000610430E08217930751F0612F8FE594E059
:103610000E94470960E0809160040E9409138FE5D1
:1036200094E00E94960E56C02091610430E082170B
:10363000930779F0612F8FE594E00E94470960E0DD
:1036400080915F040E94091360E0809160040E94F1
:10365000091360E08FE594E00E947F09182F8FE541
:1036600094E00E94960E612F70E0660F771F680F3E
:10367000711D072E000C880B990B9AC500919B01B8
:103680002091610430E08217930711F00C94F72821
:10369000402F50E02091620430E04217530711F0B0
:1036A0000C94F72862E0013059F480915F040E9485
:1036B000091360E08FE594E00E947F0980270AC02B
:1036C000809160040E9409138FE594E00E94960E99
:1036D00061E08627682F70E080E090E00E94762B02
:1036E00072C5FC01EE0FFF1FE058FE4F14910091D0
:1036F0009B0160E0812F0E940913812F0E94A41377
:1037000011E00B970CF010E0812F80270E94D90B5D
:103710001093D2017FC520919A0330E0821793075E
:1037200009F48AC0612F88E993E00E9447098091DB
:103730009903909198039093CD018093CC010E94BE
:10374000200E61E088E993E00E946F0980E78BA377
:10375000BE016D5D7F4F80E00E94A80E80E28CA3C9
:10376000BE016C5D7F4F81E00E94A80E81E08093D6
:10377000A4038DA3BE016B5D7F4F82E00E94A80E63
:10378000DE0111967D0100E010E0C8010E94952C39
:10379000F70181937F010F5F1F4F0A311105A9F7D0
:1037A0002D813E814F81588569817A818B819C81F1
:1037B0000E94462D29853A854B855C850E94462DC1
:1037C0002D853E854F8558890E94462D29893A8945
:1037D0004B895C890E94462D2D893E894F89588DE1
:1037E0000E94462D6B017C01698D70E080E090E0C5
:1037F0000E94782B9B01AC01C701B6010E94462DA7
:1038000020E030E04AE253E40E94462D0E949D2EC3
:103810008A8D68130DC08AE1FE013196A5EAB3E0F6
:1038200001900D928A95E1F781E080939C0302C09C
:1038300010929C030E94230F0E94230FAE014F5F42
:103840005F4FBE01655E7F4FCE0181960E94B7112A
:10385000882331F0682F880F770B880B990BA8C449
:1038600080919C0369A17AA10B8D1C8D882309F49A
:1038700085C0072E000C880B990B0E94782B209195
:10388000A5033091A6034091A7035091A8030E947D
:10389000462D2091B1033091B2034091B303509172
:1038A000B4030E94D72B0E94962E4B015C01B801F5
:1038B000110F880B990B0E94782B2091A90330914E
:1038C000AA034091AB035091AC030E94462D209176
:1038D000B5033091B6034091B7035091B8030E94ED
:1038E000D72B0E94962E6B017C0169817A81072E6D
:1038F000000C880B990B0E94782B2091AD0330911E
:10390000AE034091AF035091B0030E94462D209129
:10391000B9033091BA034091BB035091BC030E949C
:10392000D72B0E94962E2091BD03213029F4072E1B
:10393000000C880B990B15C0223069F4072E000C7F
:10394000880B990B0E94782B6B017C01B401990CB8
:10395000880B990B1FC0233039F5B401990C880BE3
:10396000990B0E94782B4B015C01B601DD0C880B92
:10397000990B0E94782BA501940110C0072E000C12
:10398000880B990B0E94782B6B017C01B801110FF9
:10399000880B990B0E94782BA70196010E94C52DD8
:1039A0006DA77EA78FA798AB20E030E0A9016DA599
:1039B0007EA58FA598A90E94712B87FF0FC02BEDC4
:1039C0003FE049EC50E46DA57EA58FA598A90E9423
:1039D000462D20E030E044E353E408C020E030E02E
:1039E00044E353E46DA57EA58FA598A90E94D72B2B
:1039F0002BED3FE049E450E40E94242EE4C3709094
:103A00009B012091930330E08217930729F0612FE7
:103A100081E993E00E9447099E012F5F3F4F2901F2
:103A200085E0D9011D928A95E9F761E081E993E08B
:103A30000E946F096AEF70E080E090E00E94E0135E
:103A400060E081E993E00E946F0964E170E080E04A
:103A500090E00E94E01361E081E993E00E946F0929
:103A60008BE990E00197F1F760E081E993E00E9433
:103A70006F09C1010197F1F70E941A146B017C01D3
:103A800081E993E00E94960E811110C00E941A14E1
:103A9000DC01CB018C199D09AE09BF090597A10571
:103AA000B10570F310929503109296030E941A14B8
:103AB0006B017C0181E993E00E94960E811103C0A5
:103AC00000E010E04AC00E941A14DC01CB018C19FE
:103AD0009D09AE09BF090597A105B10558F3F0CFBF
:103AE0000E941A14DC01CB018C199D09AE09BF0993
:103AF0000597A105B10530F481E993E00E94960E87
:103B0000882371F30E94BB136B017C010E941A147D
:103B10004B015C0181E993E00E94960E811122C065
:103B20000E94BB13DC01CB018C199D09AE09BF09B2
:103B3000F80123E0F595E7952A95E1F78997A10526
:103B4000B105E8F0E40DF51D8081880F8160808368
:103B50000F5F1F4F08321105B9F00E941A146B0154
:103B60007C01CACF0E941A14DC01CB018819990983
:103B7000AA09BB090597A105B10560F2D1CFE40DF3
:103B8000F51D8081880FE3CF59814B812D8130E075
:103B90006A81852F90E0860F911D840F911D6C81A5
:103BA000860F911D99272817390721F45093950303
:103BB00040939603711003C08091950329C38091AF
:103BC000960326C320918D0330E082179307D1F02E
:103BD000612F8BE893E00E94470980918B039091BD
:103BE0008C0390938F038093900380918F0360E008
:103BF0000E9409138091900380938B0380918F031F
:103C000080938C038BE893E022C02091870330E0FF
:103C100082179307D1F0612F85E893E00E9447094E
:103C200080918503909186039093890380938A0302
:103C30008091890360E00E94091380918A03809338
:103C40008503809189038093860385E893E00E9431
:103C50006309BC01990F880B990B0E94782B0E9475
:103C6000880BD8C2B0919B01B9A74EE067EF73E013
:103C70008BE30E94A50D81113FC2A090F703B09085
:103C8000F803BA24AB24BA24B092E603A092E50369
:103C9000E090F903F090FA03FE24EF24FE24F09262
:103CA000E803E092E7030091FB031091FC03102767
:103CB000012710271093EA030093E9034090C903FA
:103CC0005090CA036090CB037090CC036091FF03C7
:103CD00070910004762767277627072E000C880B43
:103CE000990B0E94782B2091EB033091EC034091CB
:103CF000ED035091EE030E94452DA30192010E9415
:103D0000242E6093D9037093DA038093DB0390939E
:103D1000DC036091010470910204762767277627FF
:103D2000072E000C880B990B0E94782B2091EF0333
:103D30003091F0034091F1035091F2030E94452D20
:103D4000A30192010E94242E6093DD037093DE0391
:103D50008093DF039093E003609103047091040467
:103D6000762767277627072E000C880B990B0E9471
:103D7000782B2091F3033091F4034091F503509197
:103D8000F6030E94452DA30192010E94242E609308
:103D9000E1037093E2038093E3039093E403B7019C
:103DA000FF0C880B990B0E94782B6B017C01B801EA
:103DB000110F880B990B0E94782B9B01AC010E947C
:103DC000D72B2B013C01A7019601C701B6010E9428
:103DD000D72BA30192010E94462D0E94AE2F69AB02
:103DE0007AAB8BAB9CABB501BB0C880B990B0E94DB
:103DF000782B4B015C0129A93AA94BA95CA90E9427
:103E0000C52D20E030E044E353E40E94D72B2AED97
:103E10003FE049E450E40E94242E69AB7AAB8BABBF
:103E20009CABA5019401C501B4010E94D72BA3014D
:103E300092010E94462D0E94AE2F9B01AC01C7014A
:103E4000B6010E94C52D20E030E044E353E40E9417
:103E5000D72B2AED3FE049E450E40E94242E69AFBD
:103E60007AAF8BAF9CAF0E941A140091CE011091D3
:103E7000CF012091D0013091D101601B710B820BD9
:103E8000930B0E94762B20E030E04AE754E40E9436
:103E9000242E6B017C010E941A146093CE01709352
:103EA000CF018093D0019093D1018091E90390914B
:103EB000EA032091DD033091DE034091DF0350914E
:103EC000E003181619067CF5C701B6010E94D72B2E
:103ED0009B01AC016091CD037091CE038091CF0323
:103EE0009091D0030E94452D6093CD037093CE0333
:103EF0008093CF039093D0032091D9033091DA03BC
:103F00004091DB035091DC03C701B6010E94D72B1F
:103F10002091D1033091D2034091D3035091D40327
:103F20000E94462D2EC0C701B6010E94D72B2091BA
:103F3000CD033091CE034091CF035091D0030E9426
:103F4000462D6093CD037093CE038093CF0390935F
:103F5000D0032091D9033091DA034091DB035091D3
:103F6000DC03C701B6010E94D72B9B01AC01609115
:103F7000D1037091D2038091D3039091D4030E9416
:103F8000452D6093D1037093D2038093D303909314
:103F9000D4032091E1033091E2034091E303509177
:103FA000E403C701B6010E94D72B2091D5033091BD
:103FB000D6034091D7035091D8030E94462D4B0160
:103FC0005C0120E030E044EB53E40E94242E0E9488
:103FD000CC2E20E030E044EB53E40E94D72B9B0131
:103FE000AC01C501B4010E94452D4B015C0120E0EC
:103FF00030E044E353E40E944B2F18164CF08092BB
:10400000D5039092D603A092D703B092D80310C0E4
:1040100020E030E044EB53E4C501B4010E94452D9B
:104020006093D5037093D6038093D7039093D803FE
:1040300020E030E040E05FE3C701B6010E94462D7A
:104040009B01AC0160E070E080E09FE30E94242EC1
:104050006B017C019B01AC0160E070E080E89FE3B4
:104060000E94452D4B015C012091CD033091CE0380
:104070004091CF035091D003C701B6010E94D72BC6
:104080002B013C01A501940169A97AA98BA99CA9DE
:104090000E94D72B9B01AC01C301B2010E94462DA7
:1040A0006093CD037093CE038093CF039093D0039E
:1040B0002091D1033091D2034091D3035091D40386
:1040C000C701B6010E94D72B6B017C01A5019401A9
:1040D00069AD7AAD8BAD9CAD0E94D72B9B01AC0135
:1040E000C701B6010E94462D6093D1037093D2039D
:1040F0008093D3039093D403E9A5E13069F4209130
:10410000CD033091CE034091CF035091D0032DAB1E
:104110003EAB4FAB58AF1FC039A5323069F4409168
:10412000D1035091D2036091D3037091D4034DAB6E
:104130005EAB6FAB78AF0FC059A5533061F460919F
:10414000D5037091D6038091D7039091D8036DABBE
:104150007EAB8FAB98AF6DA97EA98FA998AD33C008
:1041600062E673E0CE0101960E942707CE01019618
:104170000E94650ECE0101960E9422074BC060E0AE
:10418000812F0E940913812F0E94B1120DC0FC01E2
:10419000EE0FFF1FE058FE4F149160E0812F0E9448
:1041A0000913812F0E94A413BC01990F880B990B4E
:1041B0000E94782B08C060911802709119028091BA
:1041C0001A0290911B020E94B10B24C0209181031E
:1041D00030E08217930729F0612F8FE793E00E9468
:1041E00047098FE793E00E94960E12C020916A0360
:1041F00030E08217930729F0612F88E693E00E9450
:10420000470981E020919B0190912002291380E0D1
:104210000E94D90B0E947B020C94DD28E0909A0149
:104220000E2D10E07DE0F71609F4CDC67F15E4F100
:1042300088E0F81609F470C08F155CF193E0F91668
:1042400009F4AEC6A5E0FA120C94DB2886E090E0F3
:104250000E94740B7C0169E08DE994E00E9447099B
:1042600004EF11E01093A4040093A304C7010E947B
:10427000680D88E090E00E94740B7C016AE08DE993
:1042800094E00E9447091093A4040093A304C7017B
:1042900040C0BAE0FB1631F1FB160CF4F4C0EBE0C1
:1042A000FE1609F4A4C087C7F1E2FF1609F40CC793
:1042B000FF1564F02EE1F21609F4DCC630E2F316C5
:1042C00009F4E2C644E1F41276C7B4C659E2F51621
:1042D00009F4E7C162E3F61609F43CC772E2F7128B
:1042E0006AC7DDC687E090E00E94740B6C01809184
:1042F0009F0490E00817190759F06E2D8DE994E09E
:104300000E94470984EF91E09093A4048093A30452
:10431000C6010E94680D4FC7C0909B01F0909C01A0
:10432000B0909D01A0909E0190909F0180917D048E
:1043300090E00817190709F06BC72C2D30E0809129
:104340007E0490E02817390709F062C720C092E088
:10435000C9120C94452980917C04282F30E0F90182
:10436000E85DFB4FE491E0938904F901EC5EFB4FBB
:10437000E491F0E0EE0FFF1FE65FFB4F25913491D3
:10438000309386042093850461E00E940913FF2086
:1043900031F1FA942F2D30E080917F0490918004C8
:1043A0002817390708F58F2D880FF80E8F2D90E00C
:1043B000E0918104F0918204E80FF91FA082E0915E
:1043C0008104F0918204E80FF91FB18220918104E9
:1043D00030918204F901E80FF91F928205C0492D3E
:1043E0006A2D8B2D0E943B0D0E94DF0CE4C680914C
:1043F0009B01000F111FF801E65CFE4F813011F4A4
:10440000608101C0618170E010919C01E7EFF1E0F3
:1044100080E090E0219131916217730781F0232BA6
:1044200041F4FC01EE0FFF1FE950FE4F71836083E2
:1044300006C001968830910569F780E090E0FC01A4
:10444000EE0FFF1F8E0F9F1FFC01EB55FB4F80816E
:104450009181A28189839A83AB83153B08F0ABC617
:10446000898190E0FC01EE0FFF1F8E0F9F1FFC0162
:10447000E95CFC4F808187FD04C0CE0101960E945B
:104480002A08612F61C68091650490E0081719071A
:1044900081F1E0926504000F111FF801E65CFE4F08
:1044A00081818093640490819093630480936B0472
:1044B00090936C0461E00E94091361E080916C04A8
:1044C0000E94091380E48093670480EC8093680461
:1044D0008AE88093690425962CAD3DAD4EAD5FAD65
:1044E000259729833A834B835C83CE0101960E94F2
:1044F0008E0C80919B018093900180919C01809310
:10450000910180919D018093920180919E01809301
:1045100093014090900150909101609092017090B1
:10452000930119821A821B821C8220E030E0A901CB
:10453000C301B2010E94712B87FF08C077FA709403
:1045400077F8709481E2898311E001C010E0ADEF4B
:10455000AA2EBB24BA94B3E08B2E912C19A600E0AE
:1045600097FC4CC0B4016F5F7F4F072E000C880B87
:10457000990B0E94782B9B01AC0160E070E080E217
:1045800091E40E94582F6B017C019B01AC01C30197
:10459000B2010E94242E0E94CC2E69AB7AAB8BAB69
:1045A0009CABB401092C000C880B990B0E94782B52
:1045B0009B01AC0160E070E080E291E40E94582F22
:1045C00069AF7AAF8BAF9CAF29A93AA94BA95CA977
:1045D000C701B6010E94D72B9B01AC01C301B201F8
:1045E0000E94452D29AD3AAD4BAD5CAD0E94242E05
:1045F0000E94CC2E0E94962ECB0123C020E030E0FA
:1046000040E251E4C301B2010E94D72B32E0A3166D
:10461000B10484F020E030E040E251E40E94D72B66
:1046200042E0A416B10431F020E030E040E251E471
:104630000E94D72B0E94962ECB016AE070E00E9468
:1046400011311816190634F0033031F059A55523ED
:10465000B9F00CC0033051F4E1E0F0E0EC0FFD1FC5
:10466000E10FF11D60E1680F608307C0E1E0F0E059
:10467000EC0FFD1FE10FF11D80831F5F61E069A753
:10468000143050F40F5F71E0871A91088FEFA81A69
:10469000B80A073009F064CFCE0101960E948E0C53
:1046A0008AC58091300490E008171907B1F1000F16
:1046B000111FF801E65CFE4F8081809332049181E6
:1046C00090933304E092300461E00E94091361E0AA
:1046D000809133040E94091361E0809132040E94AA
:1046E000DA1261E0809133040E94DA1280E40E94C1
:1046F00026048CE80E942604E6E3F4E086E494E0D5
:1047000011928E179F07E1F781E080933404109295
:10471000350486E394E00E94C90380919B01282F11
:1047200030E0813009F06DC120919C01022E000C17
:10473000330BD0909D0180919E0190E04FE951E0B4
:1047400003ED11E0F801BF01635D7140681779075F
:104750002CF4DA016D91AD016193F5CFFC01ED52BE
:10476000FE4F108281E080933504EBE4F4E0A12C4D
:10477000B12CD8018D918D01882349F0B3E1AB169E
:10478000B10429F081934FEFA41AB40AF2CFB0928A
:104790004A04A0924904F501E25DFB4F158E4AEFF1
:1047A000B5014603C001479F900D11242817390712
:1047B00034F02131310524F020E130E001C09C01CA
:1047C00030934704209346044D2D40310CF04FE0C8
:1047D000D42E47FF02C0DD24DA94D092480412168A
:1047E00013060CF069C0E6E3F4E080E090E0182FD7
:1047F0008217930739F001968131910509F4CDC0F4
:104800001192F5CF803109F4C8C000E077E0F72EAF
:10481000E0E2EE2E202F30E02A153B050CF043C0DD
:10482000C12CD901A55BBB4FFC9CC0011124805752
:104830009E4FFC014491403441F144916C91062E0D
:10484000000C770B50E064177507E9F4F7E0CF9E92
:10485000A001112460E070E04F5F5F4FFA01E60FA6
:10486000F71FE057FE4FE491A12FB0E0A25DBB4FD0
:104870001896EC931F5F103141F06F5F7F4F6630E9
:10488000710561F702C0C394CFCFFC0184918034DD
:1048900029F4F901E25DFB4FE58E01500F5F103105
:1048A00009F0B8CF7AC0E12FF0E0E25DFB4F10864F
:1048B0001F5F1031C1F771C08217930741F4E6E31F
:1048C000F4E0119224E0E634F207D9F766C0EE274F
:1048D000FF27E21BF30BCF0166E070E00E9411316D
:1048E000F0934704E0934604AB0190E007E0902E7C
:1048F00060E2C62E4A155B050CF046C0812C8A0189
:10490000055B1B4F989CD0011124BD0160577E4F61
:10491000FB01F490F0E4FF1619F1FB017490F8012B
:10492000E0800E2C000CFF08E72DF0E0EE16FF06ED
:10493000A1F4FD01E80FF11D87FDFA95EF56FE4F3A
:104940001491E92FF0E0E25DFB4F10879F5F9031FB
:1049500030F48F5F863069F702C08394D3CF80E054
:10496000FB016491603431F4FA01E25DFB4FC58EC6
:10497000415051094F5F5F4F903108F4BBCF3093E6
:1049800047042093460409C0E92FF0E0E25DFB4FA5
:1049900010869F5F9031C1F7F2CF8D2DDD0C990B02
:1049A00027E030E0281B390BE6E3F4E037FD12C0C6
:1049B0008081022E01C0880F0A94EAF7819344E0B7
:1049C000E634F407A9F7809134048111DAC2E6E3F2
:1049D000F4E00FC00797208130E0082E02C0359523
:1049E00027950A94E2F7219354E0E634F50799F706
:1049F000EACF80818095819364E0E634F607C9F7B9
:104A0000C0C2823009F090C020919C0110919D019C
:104A1000AEE9B1E067EF71E0E7EEF1E08D918193EF
:104A20006E177F07D9F720310CF0C5C318300CF092
:104A3000C2C380913404412F012E000C550B022E6D
:104A4000000C330B8823B9F188E090E0841B950BB0
:104A50000FEF01C0000F8A95EAF7D901A25DBB4FA5
:104A6000E7EEF1E0275E3140EE24FF24E41AF50A78
:104A7000C9018E0F9F1F97FD18C01896DC901897DC
:104A8000D0228081111644F490E0042E02C0959546
:104A900087950A94E2F705C00E2C01C0880F0A948E
:104AA000EAF78D2918968C931897119631966E1700
:104AB0007F07F1F666C288E090E0841B950B0FEF4C
:104AC00001C0000F8A95EAF7D901A25DBB4FE7EE5E
:104AD000F1E0275E3140CC24DD24C41AD50AC90197
:104AE0008E0F9F1F97FD1AC01896FC901897F02202
:104AF000808190E08095909511163CF4042E02C0C0
:104B0000959587950A94E2F705C00C2C01C0880F93
:104B10000A94EAF78F2918968C9318971196319674
:104B20006E177F07E1F62DC22330310509F092C0E0
:104B300020919C0180919D0140919E013AE0632F5C
:104B40000E94F130592F682F70E0CB01880F991F18
:104B5000860F971FFC01ED51FC4FE491E093360462
:104B6000FC01EC51FC4FE491E0933704FC01EB5164
:104B7000FC4FE491E093380410923904852F90E0C3
:104B8000FC01EE0FFF1F8E0F9F1FFC01ED51FC4F2C
:104B9000E491E0933A04FC01EC51FC4FE491E09382
:104BA0003B04FC01EB51FC4F849180933C04842F27
:104BB000632F0E94F130392F482F50E0CA01880F2F
:104BC000991F840F951FFC01ED51FC4FE491E09378
:104BD0003F04FC01EC51FC4FE491E0934004FC01E4
:104BE000EB51FC4FE491E093410410924204832F77
:104BF00090E0FC01EE0FFF1F8E0F9F1FFC01ED5197
:104C0000FC4FE491E0934304FC01EC51FC4FE49130
:104C1000E0934404FC01EB51FC4F849180934504E4
:104C2000222331F088E280933D0480933E0404C047
:104C300010923D0410923E04809134048111A1C170
:104C4000E6E3F4E080818095819374E0E634F70731
:104C5000C9F797C12430310509F0ADC280919C019C
:104C60008093900180919D018093910180919E019C
:104C70008093920180919F0180939301C090900155
:104C8000D0909101E0909201F0909301460157017C
:104C9000B7FAB094B7F8B09420E030E0A901C701AA
:104CA000B6010E94712B482E441C4424441C87FFEB
:104CB00005C0582C092D7A2C6B2C04C05C2C0D2DB2
:104CC0007E2C6F2C13E021968CAD9DADAEADBFADAB
:104CD00021978B8F9C8FAD8FBE8F20E03EE34CE100
:104CE00056E4C701B6010E944B2F87FD03C089E03F
:104CF0008B8F13C020E030EE49E754ECC701B601BA
:104D00000E94712B181634F4B12C60E070E080E042
:104D10009FE307C08BE08B8F89E08C8F8D8F8E8F08
:104D2000C0C01B1541F020E030E040E251E40E9499
:104D3000242EB394F6CF252D302F472D562D0E94CB
:104D4000462D4B015C010E949D2E9B01AB01E0E0D2
:104D5000CA016AE070E00E94FD30A1E0B0E0AC0F53
:104D6000BD1FAE0FB11D9AE0699F401911244C93ED
:104D7000EF5FAB01672B61F79E2F940D812F890F99
:104D8000853018F014E0191B9ECF04E0081B442066
:104D900041F0DE01A00FB11D9BE05B969C9305E006
:104DA000081B8E2F0E0F902F981B882369F0EBE1C4
:104DB000F0E0EC0FFD1FE90FF11DDE01A80FB11DA2
:104DC0009C9190838150EFCF112309F46AC0B901FF
:104DD00080E090E00E94762B9B01AC01C501B401FC
:104DE0000E94452D6B01E82EF92E033061F420E07E
:104DF00030E040E251E40E94D72B0E94962E672BB0
:104E0000F1F48CE08CCF023061F420E030E048EC2B
:104E100052E40E94D72B0E94962E672B81F48CE0DF
:104E20007DCF013061F420E030E04AE754E40E9495
:104E3000D72B0E94962E672B11F48CE06ECFBB24EB
:104E4000B394B00EEBE1F0E0EC0FFD1FE00FF11DAD
:104E50008AE08083115028F120E030E040E251E404
:104E6000B601C7010E94D72B6B017C010E94962ED0
:104E700001E00B0DEBE1F0E0EC0FFD1FEB0DF11D80
:104E80006083072E000C880B990B0E94782B9B01E6
:104E9000AC01C701B6010E94452D6B017C01B02E0B
:104EA000D9CF8B8D90E0FC01EE0FFF1F8E0F9F1F5F
:104EB000FC01ED51FC4FE491E0933604FC01EC5110
:104EC000FC4FE491E0933704FC01EB51FC4FE4917B
:104ED000E0933804109239048C8D90E0FC01EE0FC1
:104EE000FF1F8E0F9F1FFC01ED51FC4FE491E093DB
:104EF0003A04FC01EC51FC4FE491E0933B04FC01CB
:104F0000EB51FC4FE491E0933C0410923D048D8DF5
:104F100090E0FC01EE0FFF1F8E0F9F1FFC01ED5173
:104F2000FC4FE491E0933E04FC01EC51FC4FE49112
:104F3000E0933F04FC01EB51FC4FE491E09340040B
:104F4000109241048E8D90E0FC01EE0FFF1F8E0F3A
:104F50009F1FFC01ED51FC4FE491E0934204FC01E2
:104F6000EC51FC4FE491E0934304FC01EB51FC4F06
:104F7000E491E09344041092450480913404882322
:104F800029F086E394E00E94C90315C1E6E3F4E04A
:104F9000808180958193A4E0E634FA07C9F7F1CFC8
:104FA0008091610490E00817190729F06E2D8FE5B4
:104FB00094E00E94470911E080919B01811101C09A
:104FC00010E061E047C06EE871E0CE014B960E94B0
:104FD00041070091960110E00350110984E9E82E81
:104FE00081E0F82EC701845991408017910754F44D
:104FF000F7016681CE014B960E94C706FFEFEF1ABC
:10500000FF0AF0CFBE01655E7F4FCE0101960E9480
:105010002707CE0101960E940003CE0101960E944F
:105020002207CE014B960E94F302CE014B960E94BE
:105030002207C1C08091610490E00817190729F088
:105040006E2D8FE594E00E94470910919B0161E06D
:10505000123040F480915F040E940913612F809107
:105060005F040FC0123009F460E08FE594E00E9405
:105070006F09A1C061E08E2D0E94091360919B0110
:105080008E2D0E94DA1297C061E08E2D0E940913C6
:1050900060919B0170E08E2D0E9445138CC086E0CC
:1050A00090E00E94740B8C0188E090E00E94740BE9
:1050B000101611060CF07DC0AC01990F660B770B32
:1050C000C8010E94830277C0F0909B01E7EFF1E0F6
:1050D00080E090E0219131910217130781F0232B9A
:1050E00041F4FC01EE0FFF1FE950FE4F11830083D6
:1050F00006C001968830910569F780E090E0FC01D8
:10510000EE0FFF1F8E0F9F1FFC01EB55FB4F8081A1
:105110009181A28189839A83AB8324EB2F1508F4B4
:105120004AC0898190E0FC01EE0FFF1F8E0F9F1F88
:10513000FC01E95CFC4F808187FD05C0B801CE0110
:1051400001960E942A086F2D70E0CE0101960E9400
:10515000AE0731C00E941A140E94762B20E030E086
:105160004AE754E40E94242E60931C0270931D02AF
:1051700080931E0290931F021EC069E08DE994E0A7
:105180000E94470904EF11E01093A4040093A304C4
:1051900080E090E00E94680D6AE08DE994E00E9452
:1051A00047091093A4040093A30480E090E00E94B8
:1051B000680D0E946F020E94E20B109209020E9489
:1051C000D4050C940117982F0C94E0190E941A141E
:1051D000DC01CB018C199D09AE09BF098E3E9240BE
:1051E000A105B10510F40C94031A0C94191A880F38
:1051F000991FFC01E65CFE4F808180935F048181F2
:105200008093600410936104009362040C94521B19
:10521000E0927D04C0927E04000F111FF801E65C4D
:10522000FE4F818180937C04808180937B0440E0E9
:1052300060E080E00E943B0D20E030E052E041E081
:1052400080917F04909180042817390708F07FC867
:105250008D2D90E0E0918304F0918404E80FF91F14
:105260005083E0918304F0918404E80FF91F1182C8
:105270006091830470918404FB01E80FF91F42835D
:105280002F5F3F4F83E0D80EDBCF80917B040C94DF
:10529000AD2181E0809306040E94520EC090070465
:1052A000D0900804E0900904F0900A046701EE240D
:1052B000FF241C2DC09217020E941A140E94762B04
:1052C00020E030E04AE754E40E94242E6093130269
:1052D0007093140280931502909316021A3011F005
:1052E0001D3049F4109212021092110281E0809355
:1052F00010020C9478186C2D8CE593E00E94C70680
:10530000809111029091120201968134910534F43A
:1053100090931202809311020C947818109212024A
:10532000109211028CE593E00E94F3020C9478181D
:10533000CF93DF938CE593E00E94220782E693E00F
:105340000E94220780E294E00E9422078AE194E012
:105350000E942207CBE7D4E08E819F810E94C33157
:1053600088859985DF91CF910C94C331CF931092AA
:1053700024021092230288EE93E0A0E0B0E0809334
:10538000250290932602A0932702B09328022AE1D7
:1053900031E0309322022093210225EC30E030935B
:1053A0002E0220932D0224EC30E030933002209323
:1053B0002F0220EC30E0309332022093310221ECB6
:1053C00030E0309334022093330222EC30E030930B
:1053D00036022093350226EC30E0309338022093D9
:1053E000370210923A0210923B0210923C02109245
:1053F0003D0221E030E03093BF042093BE041092C0
:10540000C0051092C1051092C2051092C3051092FA
:10541000C4051092C5051092C6051092C7051092DA
:10542000C8051092C9051092CA051092CB051092BA
:10543000CC051092CD051092CF051092CE0510929A
:10544000D0051092D1051092D2051092D30510927A
:10545000D4051092D5051092D6051092D70510925A
:10546000D8051092C1021092C0028093C20290939C
:10547000C302A093C402B093C5028CE291E0909362
:10548000BF028093BE0280915B03A5EAB4E09FEF68
:1054900048EB5BE08C3078F48C93282F30E0F901F6
:1054A000EE0FFF1F2E0F3F1FF901E95CFC4F5283E7
:1054B00041838F5F01C09C93139624E0AD3BB207FC
:1054C00049F780935B0310929D0410929E04109202
:1054D0009F048AE894E00E946C2B10927B04109247
:1054E0007C0410927D04E8E2F4E0E491E093890406
:1054F000E4E1F4E0E491F0E0EE0FFF1FE65FFB4F24
:1055000085919491909386048093850461E080E076
:105510000E9409138EE190E09093800480937F04B1
:105520008AE590E00E942B3190938204809381045D
:10553000892B21F486E691E00E94343320E030E0AC
:1055400080917F0490918004AC01440F551F840F1B
:10555000951F2817390750F4E0918104F0918204D7
:10556000E20FF31F10822F5F3F4FEACF0E942B31D3
:105570009093840480938304892B21F486E691E040
:105580000E94343380E090E020917F0430918004C9
:10559000A901440F551F240F351F8217930748F4A4
:1055A000E0918304F0918404E80FF91F10820196C2
:1055B000EBCF10927D04C2E0C0937E0410926D0484
:1055C00010926E0410926F0483E694E00E946C2B9C
:1055D0008FE594E00E946C2B8EE294E00E946C2B8D
:1055E0008AE294E00E946C2B88E08093BD046EE810
:1055F00071E08AE194E00E9441076EE871E080E288
:1056000094E00E94410760E082E00E940913C09389
:10561000CA021092260410922704109228041092B5
:105620002904109211041092100410921204109286
:1056300018048AE194E00E94F302109219040E9477
:10564000520E61E083E00E94091360E083E00E9453
:10565000DA121092C3031092C4031092C50388E6B5
:10566000809305041092BF031092C0031092C103EF
:10567000109298031092990310929A038EE18093EE
:10568000A30310929C031092910310929203109224
:10569000930310928B0310928C0310928D0310923F
:1056A0008503109286031092870310927F03109255
:1056B00080031092810388E693E00E946C2B62E8DD
:1056C00071E082E693E00E9441076EE871E08CE5AC
:1056D00093E0CF910C944107FC0110821182128259
:1056E00008950E94B32B08F481E00895E89409C05E
:1056F00097FB3EF490958095709561957F4F8F4F05
:105700009F4F9923A9F0F92F96E9BB279395F6951A
:10571000879577956795B795F111F8CFFAF4BB0F98
:1057200011F460FF1BC06F5F7F4F8F4F9F4F16C0FC
:10573000882311F096E911C0772321F09EE8872F86
:10574000762F05C0662371F096E8862F70E060E042
:105750002AF09A95660F771F881FDAF7880F9695BB
:10576000879597F90895990F0008550FAA0BE0E85F
:10577000FEEF16161706E807F907C0F01216130613
:10578000E407F50798F0621B730B840B950B39F453
:105790000A2661F0232B242B252B21F408950A26B9
:1057A00009F4A140A6958FEF811D811D08950E94E7
:1057B000EA2B0C945B2C0E944D2C38F00E94542C48
:1057C00020F0952311F00C94442C0C944A2C1124B5
:1057D0000C948F2C0E946C2C70F3959FC1F3950F45
:1057E00050E0551F629FF001729FBB27F00DB11D65
:1057F000639FAA27F00DB11DAA1F649F6627B00DF5
:10580000A11D661F829F2227B00DA11D621F739FDD
:10581000B00DA11D621F839FA00D611D221F749FEB
:105820003327A00D611D231F849F600D211D822F32
:10583000762F6A2F11249F5750409AF0F1F0882359
:105840004AF0EE0FFF1FBB1F661F771F881F915086
:105850005040A9F79E3F510580F00C94442C0C94C5
:105860008F2C5F3FE4F3983ED4F386957795679548
:10587000B795F795E7959F5FC1F7FE2B880F911DB0
:105880009695879597F9089597F99F6780E870E056
:1058900060E008959FEF80EC089500240A941616A6
:1058A000170618060906089500240A94121613060E
:1058B000140605060895092E0394000C11F488239C
:1058C00052F0BB0F40F4BF2B11F460FF04C06F5FB8
:1058D0007F4F8F4F9F4F089557FD9058440F551F8E
:1058E00059F05F3F71F04795880F97FB991F61F062
:1058F0009F3F79F087950895121613061406551FD9
:10590000F2CF4695F1DF08C0161617061806991F44
:10591000F1CF86957105610508940895E894BB2739
:1059200066277727CB0197F90895F999FECF92BDA5
:1059300081BDF89A992780B50895262FF999FECF51
:105940001FBA92BD81BD20BD0FB6F894FA9AF99A9C
:105950000FBE01960895052E97FB1EF400940E9439
:10596000C22C57FD07D00E94142D07FC03D04EF423
:105970000C94C22C50954095309521953F4F4F4F38
:105980005F4F089590958095709561957F4F8F4FEB
:105990009F4F08950E94362DA59F900DB49F900DA6
:1059A000A49F800D911D11240895B7FF0C94CA2C5B
:1059B0000E94CA2C821B930B08952F923F924F9204
:1059C0005F926F927F928F929F92AF92BF92CF928F
:1059D000DF92EF92FF920F931F93CF93DF93CDB798
:1059E000DEB7CA1BDB0B0FB6F894DEBF0FBECDBF10
:1059F00009942A88398848885F846E847D848C84E1
:105A00009B84AA84B984C884DF80EE80FD800C81E9
:105A10001B81AA81B981CE0FD11D0FB6F894DEBFCC
:105A20000FBECDBFED010895A1E21A2EAA1BBB1B2C
:105A3000FD010DC0AA1FBB1FEE1FFF1FA217B3075A
:105A4000E407F50720F0A21BB30BE40BF50B661F70
:105A5000771F881F991F1A9469F760957095809534
:105A600090959B01AC01BD01CF010895A29FB001AB
:105A7000B39FC001A39F700D811D1124911DB29F82
:105A8000700D811D1124911D08955058BB27AA2720
:105A90000E945D2D0C945B2C0E944D2C38F00E94CE
:105AA000542C20F039F49F3F19F426F40C944A2C1E
:105AB0000EF4E095E7FB0C94442CE92F0E946C2C2B
:105AC00058F3BA17620773078407950720F079F433
:105AD000A6F50C948E2C0EF4E0950B2EBA2FA02D6B
